{"abi":[{"inputs":[{"internalType":"address","name":"addressEIP20","type":"address"},{"internalType":"address","name":"owner","type":"address"}],"stateMutability":"nonpayable","type":"constructor"},{"inputs":[{"internalType":"uint256","name":"","type":"uint256"}],"name":"answers","outputs":[{"internalType":"uint256","name":"","type":"uint256"}],"stateMutability":"view","type":"function"},{"inputs":[{"internalType":"uint256","name":"correctAnswers","type":"uint256"}],"name":"claimPrize","outputs":[{"internalType":"bool","name":"","type":"bool"}],"stateMutability":"nonpayable","type":"function"},{"inputs":[{"internalType":"address payable","name":"transferAddress","type":"address"}],"name":"destroyContract","outputs":[],"stateMutability":"nonpayable","type":"function"},{"inputs":[],"name":"endQuiz","outputs":[],"stateMutability":"nonpayable","type":"function"},{"inputs":[],"name":"getAnswerKey","outputs":[{"internalType":"uint256[]","name":"","type":"uint256[]"}],"stateMutability":"view","type":"function"},{"inputs":[],"name":"getQuizBalance","outputs":[{"internalType":"uint256","name":"","type":"uint256"}],"stateMutability":"view","type":"function"},{"inputs":[],"name":"getStage","outputs":[{"internalType":"uint256","name":"","type":"uint256"}],"stateMutability":"view","type":"function"},{"inputs":[],"name":"isUserRegistered","outputs":[{"internalType":"bool","name":"","type":"bool"}],"stateMutability":"view","type":"function"},{"inputs":[],"name":"manager","outputs":[{"internalType":"address","name":"","type":"address"}],"stateMutability":"view","type":"function"},{"inputs":[{"internalType":"uint256[]","name":"answerKey","type":"uint256[]"}],"name":"publishAnswers","outputs":[],"stateMutability":"nonpayable","type":"function"},{"inputs":[],"name":"registerUser","outputs":[],"stateMutability":"nonpayable","type":"function"},{"inputs":[],"name":"stage","outputs":[{"internalType":"enum Quiz.Stage","name":"","type":"uint8"}],"stateMutability":"view","type":"function"},{"inputs":[],"name":"startQuiz","outputs":[],"stateMutability":"nonpayable","type":"function"},{"inputs":[],"name":"startReg","outputs":[],"stateMutability":"nonpayable","type":"function"},{"inputs":[{"internalType":"address","name":"","type":"address"}],"name":"user","outputs":[{"internalType":"bool","name":"","type":"bool"}],"stateMutability":"view","type":"function"}],"devdoc":{"kind":"dev","methods":{},"version":1},"evm":{"assembly":"    /* \"Quiz.sol\":1203:3997  contract Quiz{\r... */\n  mstore(0x40, 0x80)\n    /* \"Quiz.sol\":1730:1888  constructor(address addressEIP20, address owner) {\r... */\n  callvalue\n  dup1\n  iszero\n  tag_1\n  jumpi\n  0x00\n  dup1\n  revert\ntag_1:\n  pop\n  mload(0x40)\n  sub(codesize, bytecodeSize)\n  dup1\n  bytecodeSize\n  dup4\n  codecopy\n  dup2\n  dup2\n  add\n  0x40\n  mstore\n  0x40\n  dup2\n  lt\n  iszero\n  tag_2\n  jumpi\n  0x00\n  dup1\n  revert\ntag_2:\n  dup2\n  add\n  swap1\n  dup1\n  dup1\n  mload\n  swap1\n  0x20\n  add\n  swap1\n  swap3\n  swap2\n  swap1\n  dup1\n  mload\n  swap1\n  0x20\n  add\n  swap1\n  swap3\n  swap2\n  swap1\n  pop\n  pop\n  pop\n    /* \"Quiz.sol\":1812:1824  addressEIP20 */\n  dup2\n    /* \"Quiz.sol\":1790:1803  instanceEIP20 */\n  0x00\n  dup1\n    /* \"Quiz.sol\":1790:1825  instanceEIP20 = EIP20(addressEIP20) */\n  0x0100\n  exp\n  dup2\n  sload\n  dup2\n  0xffffffffffffffffffffffffffffffffffffffff\n  mul\n  not\n  and\n  swap1\n  dup4\n  0xffffffffffffffffffffffffffffffffffffffff\n  and\n  mul\n  or\n  swap1\n  sstore\n  pop\n    /* \"Quiz.sol\":1846:1851  owner */\n  dup1\n    /* \"Quiz.sol\":1836:1843  manager */\n  0x03\n  0x00\n    /* \"Quiz.sol\":1836:1851  manager = owner */\n  0x0100\n  exp\n  dup2\n  sload\n  dup2\n  0xffffffffffffffffffffffffffffffffffffffff\n  mul\n  not\n  and\n  swap1\n  dup4\n  0xffffffffffffffffffffffffffffffffffffffff\n  and\n  mul\n  or\n  swap1\n  sstore\n  pop\n    /* \"Quiz.sol\":1870:1880  Stage.Init */\n  0x00\n    /* \"Quiz.sol\":1862:1867  stage */\n  dup1\n  0x14\n    /* \"Quiz.sol\":1862:1880  stage = Stage.Init */\n  0x0100\n  exp\n  dup2\n  sload\n  dup2\n  0xff\n  mul\n  not\n  and\n  swap1\n  dup4\n  0x04\n  dup2\n  gt\n  iszero\n  tag_5\n  jumpi\n  invalid\ntag_5:\n  mul\n  or\n  swap1\n  sstore\n  pop\n    /* \"Quiz.sol\":1730:1888  constructor(address addressEIP20, address owner) {\r... */\n  pop\n  pop\n    /* \"Quiz.sol\":1203:3997  contract Quiz{\r... */\n  dataSize(sub_0)\n  dup1\n  dataOffset(sub_0)\n  0x00\n  codecopy\n  0x00\n  return\nstop\n\nsub_0: assembly {\n        /* \"Quiz.sol\":1203:3997  contract Quiz{\r... */\n      mstore(0x40, 0x80)\n      callvalue\n      dup1\n      iszero\n      tag_1\n      jumpi\n      0x00\n      dup1\n      revert\n    tag_1:\n      pop\n      jumpi(tag_2, lt(calldatasize, 0x04))\n      shr(0xe0, calldataload(0x00))\n      dup1\n      0x6db92d77\n      gt\n      tag_18\n      jumpi\n      dup1\n      0xc040e6b8\n      gt\n      tag_19\n      jumpi\n      dup1\n      0xc040e6b8\n      eq\n      tag_14\n      jumpi\n      dup1\n      0xd7098154\n      eq\n      tag_15\n      jumpi\n      dup1\n      0xedb089cd\n      eq\n      tag_16\n      jumpi\n      dup1\n      0xfcaa7664\n      eq\n      tag_17\n      jumpi\n      jump(tag_2)\n    tag_19:\n      dup1\n      0x6db92d77\n      eq\n      tag_10\n      jumpi\n      dup1\n      0x81e7e20e\n      eq\n      tag_11\n      jumpi\n      dup1\n      0x873138f3\n      eq\n      tag_12\n      jumpi\n      dup1\n      0xbedbc501\n      eq\n      tag_13\n      jumpi\n      jump(tag_2)\n    tag_18:\n      dup1\n      0x481c6a75\n      gt\n      tag_20\n      jumpi\n      dup1\n      0x481c6a75\n      eq\n      tag_6\n      jumpi\n      dup1\n      0x4c3415e6\n      eq\n      tag_7\n      jumpi\n      dup1\n      0x4d3820eb\n      eq\n      tag_8\n      jumpi\n      dup1\n      0x5b0700a8\n      eq\n      tag_9\n      jumpi\n      jump(tag_2)\n    tag_20:\n      dup1\n      0x016a3738\n      eq\n      tag_3\n      jumpi\n      dup1\n      0x17599cc5\n      eq\n      tag_4\n      jumpi\n      dup1\n      0x32b4d363\n      eq\n      tag_5\n      jumpi\n    tag_2:\n      0x00\n      dup1\n      revert\n        /* \"Quiz.sol\":3704:3988  function destroyContract(address payable transferAddress) public isManager validStage(Stage.End) {\r... */\n    tag_3:\n      tag_21\n      0x04\n      dup1\n      calldatasize\n      sub\n      0x20\n      dup2\n      lt\n      iszero\n      tag_22\n      jumpi\n      0x00\n      dup1\n      revert\n    tag_22:\n      dup2\n      add\n      swap1\n      dup1\n      dup1\n      calldataload\n      0xffffffffffffffffffffffffffffffffffffffff\n      and\n      swap1\n      0x20\n      add\n      swap1\n      swap3\n      swap2\n      swap1\n      pop\n      pop\n      pop\n      tag_23\n      jump\t// in\n    tag_21:\n      stop\n        /* \"Quiz.sol\":1353:1374  uint[] public answers */\n    tag_4:\n      tag_24\n      0x04\n      dup1\n      calldatasize\n      sub\n      0x20\n      dup2\n      lt\n      iszero\n      tag_25\n      jumpi\n      0x00\n      dup1\n      revert\n    tag_25:\n      dup2\n      add\n      swap1\n      dup1\n      dup1\n      calldataload\n      swap1\n      0x20\n      add\n      swap1\n      swap3\n      swap2\n      swap1\n      pop\n      pop\n      pop\n      tag_26\n      jump\t// in\n    tag_24:\n      mload(0x40)\n      dup1\n      dup3\n      dup2\n      mstore\n      0x20\n      add\n      swap2\n      pop\n      pop\n      mload(0x40)\n      dup1\n      swap2\n      sub\n      swap1\n      return\n        /* \"Quiz.sol\":2558:2673  function getAnswerKey() public view validStage(Stage.End) returns (uint[] memory) {\r... */\n    tag_5:\n      tag_27\n      tag_28\n      jump\t// in\n    tag_27:\n      mload(0x40)\n      dup1\n      dup1\n      0x20\n      add\n      dup3\n      dup2\n      sub\n      dup3\n      mstore\n      dup4\n      dup2\n      dup2\n      mload\n      dup2\n      mstore\n      0x20\n      add\n      swap2\n      pop\n      dup1\n      mload\n      swap1\n      0x20\n      add\n      swap1\n      0x20\n      mul\n      dup1\n      dup4\n      dup4\n      0x00\n    tag_29:\n      dup4\n      dup2\n      lt\n      iszero\n      tag_31\n      jumpi\n      dup1\n      dup3\n      add\n      mload\n      dup2\n      dup5\n      add\n      mstore\n      0x20\n      dup2\n      add\n      swap1\n      pop\n      jump(tag_29)\n    tag_31:\n      pop\n      pop\n      pop\n      pop\n      swap1\n      pop\n      add\n      swap3\n      pop\n      pop\n      pop\n      mload(0x40)\n      dup1\n      swap2\n      sub\n      swap1\n      return\n        /* \"Quiz.sol\":1497:1519  address public manager */\n    tag_6:\n      tag_32\n      tag_33\n      jump\t// in\n    tag_32:\n      mload(0x40)\n      dup1\n      dup3\n      0xffffffffffffffffffffffffffffffffffffffff\n      and\n      dup2\n      mstore\n      0x20\n      add\n      swap2\n      pop\n      pop\n      mload(0x40)\n      dup1\n      swap2\n      sub\n      swap1\n      return\n        /* \"Quiz.sol\":2176:2273  function startQuiz() public isManager validStage(Stage.Reg) {\r... */\n    tag_7:\n      tag_34\n      tag_35\n      jump\t// in\n    tag_34:\n      stop\n        /* \"Quiz.sol\":3071:3211  function registerUser() public validStage(Stage.Reg) {\r... */\n    tag_8:\n      tag_36\n      tag_37\n      jump\t// in\n    tag_36:\n      stop\n        /* \"Quiz.sol\":2285:2380  function endQuiz() public isManager validStage(Stage.Play) {\r... */\n    tag_9:\n      tag_38\n      tag_39\n      jump\t// in\n    tag_38:\n      stop\n        /* \"Quiz.sol\":2392:2546  function publishAnswers(uint[] memory answerKey) public isManager validStage(Stage.Pub) {\r... */\n    tag_10:\n      tag_40\n      0x04\n      dup1\n      calldatasize\n      sub\n      0x20\n      dup2\n      lt\n      iszero\n      tag_41\n      jumpi\n      0x00\n      dup1\n      revert\n    tag_41:\n      dup2\n      add\n      swap1\n      dup1\n      dup1\n      calldataload\n      swap1\n      0x20\n      add\n      swap1\n      0x0100000000\n      dup2\n      gt\n      iszero\n      tag_42\n      jumpi\n      0x00\n      dup1\n      revert\n    tag_42:\n      dup3\n      add\n      dup4\n      0x20\n      dup3\n      add\n      gt\n      iszero\n      tag_43\n      jumpi\n      0x00\n      dup1\n      revert\n    tag_43:\n      dup1\n      calldataload\n      swap1\n      0x20\n      add\n      swap2\n      dup5\n      0x20\n      dup4\n      mul\n      dup5\n      add\n      gt\n      0x0100000000\n      dup4\n      gt\n      or\n      iszero\n      tag_44\n      jumpi\n      0x00\n      dup1\n      revert\n    tag_44:\n      swap2\n      swap1\n      dup1\n      dup1\n      0x20\n      mul\n      0x20\n      add\n      mload(0x40)\n      swap1\n      dup2\n      add\n      0x40\n      mstore\n      dup1\n      swap4\n      swap3\n      swap2\n      swap1\n      dup2\n      dup2\n      mstore\n      0x20\n      add\n      dup4\n      dup4\n      0x20\n      mul\n      dup1\n      dup3\n      dup5\n      calldatacopy\n      0x00\n      dup2\n      dup5\n      add\n      mstore\n      not(0x1f)\n      0x1f\n      dup3\n      add\n      and\n      swap1\n      pop\n      dup1\n      dup4\n      add\n      swap3\n      pop\n      pop\n      pop\n      pop\n      pop\n      pop\n      pop\n      swap2\n      swap3\n      swap2\n      swap3\n      swap1\n      pop\n      pop\n      pop\n      tag_45\n      jump\t// in\n    tag_40:\n      stop\n        /* \"Quiz.sol\":1381:1418  mapping( address => bool) public user */\n    tag_11:\n      tag_46\n      0x04\n      dup1\n      calldatasize\n      sub\n      0x20\n      dup2\n      lt\n      iszero\n      tag_47\n      jumpi\n      0x00\n      dup1\n      revert\n    tag_47:\n      dup2\n      add\n      swap1\n      dup1\n      dup1\n      calldataload\n      0xffffffffffffffffffffffffffffffffffffffff\n      and\n      swap1\n      0x20\n      add\n      swap1\n      swap3\n      swap2\n      swap1\n      pop\n      pop\n      pop\n      tag_48\n      jump\t// in\n    tag_46:\n      mload(0x40)\n      dup1\n      dup3\n      iszero\n      iszero\n      dup2\n      mstore\n      0x20\n      add\n      swap2\n      pop\n      pop\n      mload(0x40)\n      dup1\n      swap2\n      sub\n      swap1\n      return\n        /* \"Quiz.sol\":3223:3414  function isUserRegistered() public view validStage(Stage.Play) returns (bool) {\r... */\n    tag_12:\n      tag_49\n      tag_50\n      jump\t// in\n    tag_49:\n      mload(0x40)\n      dup1\n      dup3\n      iszero\n      iszero\n      dup2\n      mstore\n      0x20\n      add\n      swap2\n      pop\n      pop\n      mload(0x40)\n      dup1\n      swap2\n      sub\n      swap1\n      return\n        /* \"Quiz.sol\":2068:2164  function startReg() public isManager validStage(Stage.Init) {\r... */\n    tag_13:\n      tag_51\n      tag_52\n      jump\t// in\n    tag_51:\n      stop\n        /* \"Quiz.sol\":1305:1323  Stage public stage */\n    tag_14:\n      tag_53\n      tag_54\n      jump\t// in\n    tag_53:\n      mload(0x40)\n      dup1\n      dup3\n      0x04\n      dup2\n      gt\n      iszero\n      tag_55\n      jumpi\n      invalid\n    tag_55:\n      dup2\n      mstore\n      0x20\n      add\n      swap2\n      pop\n      pop\n      mload(0x40)\n      dup1\n      swap2\n      sub\n      swap1\n      return\n        /* \"Quiz.sol\":3426:3692  function claimPrize(uint correctAnswers) public returns (bool) {         // function for user to claim prize coins\r... */\n    tag_15:\n      tag_56\n      0x04\n      dup1\n      calldatasize\n      sub\n      0x20\n      dup2\n      lt\n      iszero\n      tag_57\n      jumpi\n      0x00\n      dup1\n      revert\n    tag_57:\n      dup2\n      add\n      swap1\n      dup1\n      dup1\n      calldataload\n      swap1\n      0x20\n      add\n      swap1\n      swap3\n      swap2\n      swap1\n      pop\n      pop\n      pop\n      tag_58\n      jump\t// in\n    tag_56:\n      mload(0x40)\n      dup1\n      dup3\n      iszero\n      iszero\n      dup2\n      mstore\n      0x20\n      add\n      swap2\n      pop\n      pop\n      mload(0x40)\n      dup1\n      swap2\n      sub\n      swap1\n      return\n        /* \"Quiz.sol\":1900:2056  function getQuizBalance() public view returns (uint) {          //function to return the Quiz Contract balance\r... */\n    tag_16:\n      tag_59\n      tag_60\n      jump\t// in\n    tag_59:\n      mload(0x40)\n      dup1\n      dup3\n      dup2\n      mstore\n      0x20\n      add\n      swap2\n      pop\n      pop\n      mload(0x40)\n      dup1\n      swap2\n      sub\n      swap1\n      return\n        /* \"Quiz.sol\":2685:3059  function getStage() public view returns (uint) {\r... */\n    tag_17:\n      tag_61\n      tag_62\n      jump\t// in\n    tag_61:\n      mload(0x40)\n      dup1\n      dup3\n      dup2\n      mstore\n      0x20\n      add\n      swap2\n      pop\n      pop\n      mload(0x40)\n      dup1\n      swap2\n      sub\n      swap1\n      return\n        /* \"Quiz.sol\":3704:3988  function destroyContract(address payable transferAddress) public isManager validStage(Stage.End) {\r... */\n    tag_23:\n        /* \"Quiz.sol\":1585:1592  manager */\n      0x03\n      0x00\n      swap1\n      sload\n      swap1\n      0x0100\n      exp\n      swap1\n      div\n      0xffffffffffffffffffffffffffffffffffffffff\n      and\n        /* \"Quiz.sol\":1571:1592  msg.sender == manager */\n      0xffffffffffffffffffffffffffffffffffffffff\n      and\n        /* \"Quiz.sol\":1571:1581  msg.sender */\n      caller\n        /* \"Quiz.sol\":1571:1592  msg.sender == manager */\n      0xffffffffffffffffffffffffffffffffffffffff\n      and\n      eq\n        /* \"Quiz.sol\":1563:1593  require(msg.sender == manager) */\n      tag_64\n      jumpi\n      0x00\n      dup1\n      revert\n    tag_64:\n        /* \"Quiz.sol\":3790:3799  Stage.End */\n      0x04\n        /* \"Quiz.sol\":1689:1697  reqStage */\n      dup1\n        /* \"Quiz.sol\":1680:1697  stage == reqStage */\n      0x04\n      dup2\n      gt\n      iszero\n      tag_66\n      jumpi\n      invalid\n    tag_66:\n        /* \"Quiz.sol\":1680:1685  stage */\n      0x00\n      0x14\n      swap1\n      sload\n      swap1\n      0x0100\n      exp\n      swap1\n      div\n      0xff\n      and\n        /* \"Quiz.sol\":1680:1697  stage == reqStage */\n      0x04\n      dup2\n      gt\n      iszero\n      tag_67\n      jumpi\n      invalid\n    tag_67:\n      eq\n        /* \"Quiz.sol\":1672:1698  require(stage == reqStage) */\n      tag_68\n      jumpi\n      0x00\n      dup1\n      revert\n    tag_68:\n        /* \"Quiz.sol\":3812:3835  address contractAddress */\n      0x00\n        /* \"Quiz.sol\":3846:3850  this */\n      address\n        /* \"Quiz.sol\":3812:3851  address contractAddress = address(this) */\n      swap1\n      pop\n        /* \"Quiz.sol\":3862:3875  instanceEIP20 */\n      0x00\n      dup1\n      sload\n      swap1\n      0x0100\n      exp\n      swap1\n      div\n      0xffffffffffffffffffffffffffffffffffffffff\n      and\n        /* \"Quiz.sol\":3862:3884  instanceEIP20.transfer */\n      0xffffffffffffffffffffffffffffffffffffffff\n      and\n      0xa9059cbb\n        /* \"Quiz.sol\":3885:3895  msg.sender */\n      caller\n        /* \"Quiz.sol\":3897:3910  instanceEIP20 */\n      0x00\n      dup1\n      sload\n      swap1\n      0x0100\n      exp\n      swap1\n      div\n      0xffffffffffffffffffffffffffffffffffffffff\n      and\n        /* \"Quiz.sol\":3897:3920  instanceEIP20.balanceOf */\n      0xffffffffffffffffffffffffffffffffffffffff\n      and\n      0x70a08231\n        /* \"Quiz.sol\":3921:3936  contractAddress */\n      dup6\n        /* \"Quiz.sol\":3897:3937  instanceEIP20.balanceOf(contractAddress) */\n      mload(0x40)\n      dup3\n      0xffffffff\n      and\n      0xe0\n      shl\n      dup2\n      mstore\n      0x04\n      add\n      dup1\n      dup3\n      0xffffffffffffffffffffffffffffffffffffffff\n      and\n      dup2\n      mstore\n      0x20\n      add\n      swap2\n      pop\n      pop\n      0x20\n      mload(0x40)\n      dup1\n      dup4\n      sub\n      dup2\n      dup7\n      dup1\n      extcodesize\n      iszero\n      dup1\n      iszero\n      tag_70\n      jumpi\n      0x00\n      dup1\n      revert\n    tag_70:\n      pop\n      gas\n      staticcall\n      iszero\n      dup1\n      iszero\n      tag_72\n      jumpi\n      returndatasize\n      0x00\n      dup1\n      returndatacopy\n      revert(0x00, returndatasize)\n    tag_72:\n      pop\n      pop\n      pop\n      pop\n      mload(0x40)\n      returndatasize\n      0x20\n      dup2\n      lt\n      iszero\n      tag_73\n      jumpi\n      0x00\n      dup1\n      revert\n    tag_73:\n      dup2\n      add\n      swap1\n      dup1\n      dup1\n      mload\n      swap1\n      0x20\n      add\n      swap1\n      swap3\n      swap2\n      swap1\n      pop\n      pop\n      pop\n        /* \"Quiz.sol\":3862:3938  instanceEIP20.transfer(msg.sender, instanceEIP20.balanceOf(contractAddress)) */\n      mload(0x40)\n      dup4\n      0xffffffff\n      and\n      0xe0\n      shl\n      dup2\n      mstore\n      0x04\n      add\n      dup1\n      dup4\n      0xffffffffffffffffffffffffffffffffffffffff\n      and\n      dup2\n      mstore\n      0x20\n      add\n      dup3\n      dup2\n      mstore\n      0x20\n      add\n      swap3\n      pop\n      pop\n      pop\n      0x20\n      mload(0x40)\n      dup1\n      dup4\n      sub\n      dup2\n      0x00\n      dup8\n      dup1\n      extcodesize\n      iszero\n      dup1\n      iszero\n      tag_74\n      jumpi\n      0x00\n      dup1\n      revert\n    tag_74:\n      pop\n      gas\n      call\n      iszero\n      dup1\n      iszero\n      tag_76\n      jumpi\n      returndatasize\n      0x00\n      dup1\n      returndatacopy\n      revert(0x00, returndatasize)\n    tag_76:\n      pop\n      pop\n      pop\n      pop\n      mload(0x40)\n      returndatasize\n      0x20\n      dup2\n      lt\n      iszero\n      tag_77\n      jumpi\n      0x00\n      dup1\n      revert\n    tag_77:\n      dup2\n      add\n      swap1\n      dup1\n      dup1\n      mload\n      swap1\n      0x20\n      add\n      swap1\n      swap3\n      swap2\n      swap1\n      pop\n      pop\n      pop\n      pop\n        /* \"Quiz.sol\":3962:3977  transferAddress */\n      dup3\n        /* \"Quiz.sol\":3949:3978  selfdestruct(transferAddress) */\n      0xffffffffffffffffffffffffffffffffffffffff\n      and\n      selfdestruct\n        /* \"Quiz.sol\":1353:1374  uint[] public answers */\n    tag_26:\n      0x01\n      dup2\n      dup2\n      sload\n      dup2\n      lt\n      tag_78\n      jumpi\n      invalid\n    tag_78:\n      swap1\n      0x00\n      mstore\n      keccak256(0x00, 0x20)\n      add\n      0x00\n      swap2\n      pop\n      swap1\n      pop\n      sload\n      dup2\n      jump\t// out\n        /* \"Quiz.sol\":2558:2673  function getAnswerKey() public view validStage(Stage.End) returns (uint[] memory) {\r... */\n    tag_28:\n        /* \"Quiz.sol\":2625:2638  uint[] memory */\n      0x60\n        /* \"Quiz.sol\":2605:2614  Stage.End */\n      0x04\n        /* \"Quiz.sol\":1689:1697  reqStage */\n      dup1\n        /* \"Quiz.sol\":1680:1697  stage == reqStage */\n      0x04\n      dup2\n      gt\n      iszero\n      tag_81\n      jumpi\n      invalid\n    tag_81:\n        /* \"Quiz.sol\":1680:1685  stage */\n      0x00\n      0x14\n      swap1\n      sload\n      swap1\n      0x0100\n      exp\n      swap1\n      div\n      0xff\n      and\n        /* \"Quiz.sol\":1680:1697  stage == reqStage */\n      0x04\n      dup2\n      gt\n      iszero\n      tag_82\n      jumpi\n      invalid\n    tag_82:\n      eq\n        /* \"Quiz.sol\":1672:1698  require(stage == reqStage) */\n      tag_83\n      jumpi\n      0x00\n      dup1\n      revert\n    tag_83:\n        /* \"Quiz.sol\":2658:2665  answers */\n      0x01\n        /* \"Quiz.sol\":2651:2665  return answers */\n      dup1\n      sload\n      dup1\n      0x20\n      mul\n      0x20\n      add\n      mload(0x40)\n      swap1\n      dup2\n      add\n      0x40\n      mstore\n      dup1\n      swap3\n      swap2\n      swap1\n      dup2\n      dup2\n      mstore\n      0x20\n      add\n      dup3\n      dup1\n      sload\n      dup1\n      iszero\n      tag_85\n      jumpi\n      0x20\n      mul\n      dup3\n      add\n      swap2\n      swap1\n      0x00\n      mstore\n      keccak256(0x00, 0x20)\n      swap1\n    tag_86:\n      dup2\n      sload\n      dup2\n      mstore\n      0x20\n      add\n      swap1\n      0x01\n      add\n      swap1\n      dup1\n      dup4\n      gt\n      tag_86\n      jumpi\n    tag_85:\n      pop\n      pop\n      pop\n      pop\n      pop\n      swap2\n      pop\n        /* \"Quiz.sol\":2558:2673  function getAnswerKey() public view validStage(Stage.End) returns (uint[] memory) {\r... */\n      pop\n      swap1\n      jump\t// out\n        /* \"Quiz.sol\":1497:1519  address public manager */\n    tag_33:\n      0x03\n      0x00\n      swap1\n      sload\n      swap1\n      0x0100\n      exp\n      swap1\n      div\n      0xffffffffffffffffffffffffffffffffffffffff\n      and\n      dup2\n      jump\t// out\n        /* \"Quiz.sol\":2176:2273  function startQuiz() public isManager validStage(Stage.Reg) {\r... */\n    tag_35:\n        /* \"Quiz.sol\":1585:1592  manager */\n      0x03\n      0x00\n      swap1\n      sload\n      swap1\n      0x0100\n      exp\n      swap1\n      div\n      0xffffffffffffffffffffffffffffffffffffffff\n      and\n        /* \"Quiz.sol\":1571:1592  msg.sender == manager */\n      0xffffffffffffffffffffffffffffffffffffffff\n      and\n        /* \"Quiz.sol\":1571:1581  msg.sender */\n      caller\n        /* \"Quiz.sol\":1571:1592  msg.sender == manager */\n      0xffffffffffffffffffffffffffffffffffffffff\n      and\n      eq\n        /* \"Quiz.sol\":1563:1593  require(msg.sender == manager) */\n      tag_88\n      jumpi\n      0x00\n      dup1\n      revert\n    tag_88:\n        /* \"Quiz.sol\":2225:2234  Stage.Reg */\n      0x01\n        /* \"Quiz.sol\":1689:1697  reqStage */\n      dup1\n        /* \"Quiz.sol\":1680:1697  stage == reqStage */\n      0x04\n      dup2\n      gt\n      iszero\n      tag_90\n      jumpi\n      invalid\n    tag_90:\n        /* \"Quiz.sol\":1680:1685  stage */\n      0x00\n      0x14\n      swap1\n      sload\n      swap1\n      0x0100\n      exp\n      swap1\n      div\n      0xff\n      and\n        /* \"Quiz.sol\":1680:1697  stage == reqStage */\n      0x04\n      dup2\n      gt\n      iszero\n      tag_91\n      jumpi\n      invalid\n    tag_91:\n      eq\n        /* \"Quiz.sol\":1672:1698  require(stage == reqStage) */\n      tag_92\n      jumpi\n      0x00\n      dup1\n      revert\n    tag_92:\n        /* \"Quiz.sol\":2255:2265  Stage.Play */\n      0x02\n        /* \"Quiz.sol\":2247:2252  stage */\n      0x00\n      0x14\n        /* \"Quiz.sol\":2247:2265  stage = Stage.Play */\n      0x0100\n      exp\n      dup2\n      sload\n      dup2\n      0xff\n      mul\n      not\n      and\n      swap1\n      dup4\n      0x04\n      dup2\n      gt\n      iszero\n      tag_94\n      jumpi\n      invalid\n    tag_94:\n      mul\n      or\n      swap1\n      sstore\n      pop\n        /* \"Quiz.sol\":1604:1605  _ */\n      pop\n        /* \"Quiz.sol\":2176:2273  function startQuiz() public isManager validStage(Stage.Reg) {\r... */\n      jump\t// out\n        /* \"Quiz.sol\":3071:3211  function registerUser() public validStage(Stage.Reg) {\r... */\n    tag_37:\n        /* \"Quiz.sol\":3113:3122  Stage.Reg */\n      0x01\n        /* \"Quiz.sol\":1689:1697  reqStage */\n      dup1\n        /* \"Quiz.sol\":1680:1697  stage == reqStage */\n      0x04\n      dup2\n      gt\n      iszero\n      tag_96\n      jumpi\n      invalid\n    tag_96:\n        /* \"Quiz.sol\":1680:1685  stage */\n      0x00\n      0x14\n      swap1\n      sload\n      swap1\n      0x0100\n      exp\n      swap1\n      div\n      0xff\n      and\n        /* \"Quiz.sol\":1680:1697  stage == reqStage */\n      0x04\n      dup2\n      gt\n      iszero\n      tag_97\n      jumpi\n      invalid\n    tag_97:\n      eq\n        /* \"Quiz.sol\":1672:1698  require(stage == reqStage) */\n      tag_98\n      jumpi\n      0x00\n      dup1\n      revert\n    tag_98:\n        /* \"Quiz.sol\":3163:3168  false */\n      0x00\n        /* \"Quiz.sol\":3143:3168  user[msg.sender] == false */\n      iszero\n      iszero\n        /* \"Quiz.sol\":3143:3147  user */\n      0x02\n        /* \"Quiz.sol\":3143:3159  user[msg.sender] */\n      0x00\n        /* \"Quiz.sol\":3148:3158  msg.sender */\n      caller\n        /* \"Quiz.sol\":3143:3159  user[msg.sender] */\n      0xffffffffffffffffffffffffffffffffffffffff\n      and\n      0xffffffffffffffffffffffffffffffffffffffff\n      and\n      dup2\n      mstore\n      0x20\n      add\n      swap1\n      dup2\n      mstore\n      0x20\n      add\n      0x00\n      keccak256\n      0x00\n      swap1\n      sload\n      swap1\n      0x0100\n      exp\n      swap1\n      div\n      0xff\n      and\n        /* \"Quiz.sol\":3143:3168  user[msg.sender] == false */\n      iszero\n      iszero\n      eq\n        /* \"Quiz.sol\":3135:3169  require(user[msg.sender] == false) */\n      tag_100\n      jumpi\n      0x00\n      dup1\n      revert\n    tag_100:\n        /* \"Quiz.sol\":3199:3203  true */\n      0x01\n        /* \"Quiz.sol\":3180:3184  user */\n      0x02\n        /* \"Quiz.sol\":3180:3196  user[msg.sender] */\n      0x00\n        /* \"Quiz.sol\":3185:3195  msg.sender */\n      caller\n        /* \"Quiz.sol\":3180:3196  user[msg.sender] */\n      0xffffffffffffffffffffffffffffffffffffffff\n      and\n      0xffffffffffffffffffffffffffffffffffffffff\n      and\n      dup2\n      mstore\n      0x20\n      add\n      swap1\n      dup2\n      mstore\n      0x20\n      add\n      0x00\n      keccak256\n      0x00\n        /* \"Quiz.sol\":3180:3203  user[msg.sender] = true */\n      0x0100\n      exp\n      dup2\n      sload\n      dup2\n      0xff\n      mul\n      not\n      and\n      swap1\n      dup4\n      iszero\n      iszero\n      mul\n      or\n      swap1\n      sstore\n      pop\n        /* \"Quiz.sol\":3071:3211  function registerUser() public validStage(Stage.Reg) {\r... */\n      pop\n      jump\t// out\n        /* \"Quiz.sol\":2285:2380  function endQuiz() public isManager validStage(Stage.Play) {\r... */\n    tag_39:\n        /* \"Quiz.sol\":1585:1592  manager */\n      0x03\n      0x00\n      swap1\n      sload\n      swap1\n      0x0100\n      exp\n      swap1\n      div\n      0xffffffffffffffffffffffffffffffffffffffff\n      and\n        /* \"Quiz.sol\":1571:1592  msg.sender == manager */\n      0xffffffffffffffffffffffffffffffffffffffff\n      and\n        /* \"Quiz.sol\":1571:1581  msg.sender */\n      caller\n        /* \"Quiz.sol\":1571:1592  msg.sender == manager */\n      0xffffffffffffffffffffffffffffffffffffffff\n      and\n      eq\n        /* \"Quiz.sol\":1563:1593  require(msg.sender == manager) */\n      tag_102\n      jumpi\n      0x00\n      dup1\n      revert\n    tag_102:\n        /* \"Quiz.sol\":2332:2342  Stage.Play */\n      0x02\n        /* \"Quiz.sol\":1689:1697  reqStage */\n      dup1\n        /* \"Quiz.sol\":1680:1697  stage == reqStage */\n      0x04\n      dup2\n      gt\n      iszero\n      tag_104\n      jumpi\n      invalid\n    tag_104:\n        /* \"Quiz.sol\":1680:1685  stage */\n      0x00\n      0x14\n      swap1\n      sload\n      swap1\n      0x0100\n      exp\n      swap1\n      div\n      0xff\n      and\n        /* \"Quiz.sol\":1680:1697  stage == reqStage */\n      0x04\n      dup2\n      gt\n      iszero\n      tag_105\n      jumpi\n      invalid\n    tag_105:\n      eq\n        /* \"Quiz.sol\":1672:1698  require(stage == reqStage) */\n      tag_106\n      jumpi\n      0x00\n      dup1\n      revert\n    tag_106:\n        /* \"Quiz.sol\":2363:2372  Stage.Pub */\n      0x03\n        /* \"Quiz.sol\":2355:2360  stage */\n      0x00\n      0x14\n        /* \"Quiz.sol\":2355:2372  stage = Stage.Pub */\n      0x0100\n      exp\n      dup2\n      sload\n      dup2\n      0xff\n      mul\n      not\n      and\n      swap1\n      dup4\n      0x04\n      dup2\n      gt\n      iszero\n      tag_108\n      jumpi\n      invalid\n    tag_108:\n      mul\n      or\n      swap1\n      sstore\n      pop\n        /* \"Quiz.sol\":1604:1605  _ */\n      pop\n        /* \"Quiz.sol\":2285:2380  function endQuiz() public isManager validStage(Stage.Play) {\r... */\n      jump\t// out\n        /* \"Quiz.sol\":2392:2546  function publishAnswers(uint[] memory answerKey) public isManager validStage(Stage.Pub) {\r... */\n    tag_45:\n        /* \"Quiz.sol\":1585:1592  manager */\n      0x03\n      0x00\n      swap1\n      sload\n      swap1\n      0x0100\n      exp\n      swap1\n      div\n      0xffffffffffffffffffffffffffffffffffffffff\n      and\n        /* \"Quiz.sol\":1571:1592  msg.sender == manager */\n      0xffffffffffffffffffffffffffffffffffffffff\n      and\n        /* \"Quiz.sol\":1571:1581  msg.sender */\n      caller\n        /* \"Quiz.sol\":1571:1592  msg.sender == manager */\n      0xffffffffffffffffffffffffffffffffffffffff\n      and\n      eq\n        /* \"Quiz.sol\":1563:1593  require(msg.sender == manager) */\n      tag_110\n      jumpi\n      0x00\n      dup1\n      revert\n    tag_110:\n        /* \"Quiz.sol\":2469:2478  Stage.Pub */\n      0x03\n        /* \"Quiz.sol\":1689:1697  reqStage */\n      dup1\n        /* \"Quiz.sol\":1680:1697  stage == reqStage */\n      0x04\n      dup2\n      gt\n      iszero\n      tag_112\n      jumpi\n      invalid\n    tag_112:\n        /* \"Quiz.sol\":1680:1685  stage */\n      0x00\n      0x14\n      swap1\n      sload\n      swap1\n      0x0100\n      exp\n      swap1\n      div\n      0xff\n      and\n        /* \"Quiz.sol\":1680:1697  stage == reqStage */\n      0x04\n      dup2\n      gt\n      iszero\n      tag_113\n      jumpi\n      invalid\n    tag_113:\n      eq\n        /* \"Quiz.sol\":1672:1698  require(stage == reqStage) */\n      tag_114\n      jumpi\n      0x00\n      dup1\n      revert\n    tag_114:\n        /* \"Quiz.sol\":2501:2510  answerKey */\n      dup2\n        /* \"Quiz.sol\":2491:2498  answers */\n      0x01\n        /* \"Quiz.sol\":2491:2510  answers = answerKey */\n      swap1\n      dup1\n      mload\n      swap1\n      0x20\n      add\n      swap1\n      tag_116\n      swap3\n      swap2\n      swap1\n      tag_117\n      jump\t// in\n    tag_116:\n      pop\n        /* \"Quiz.sol\":2529:2538  Stage.End */\n      0x04\n        /* \"Quiz.sol\":2521:2526  stage */\n      0x00\n      0x14\n        /* \"Quiz.sol\":2521:2538  stage = Stage.End */\n      0x0100\n      exp\n      dup2\n      sload\n      dup2\n      0xff\n      mul\n      not\n      and\n      swap1\n      dup4\n      0x04\n      dup2\n      gt\n      iszero\n      tag_118\n      jumpi\n      invalid\n    tag_118:\n      mul\n      or\n      swap1\n      sstore\n      pop\n        /* \"Quiz.sol\":1604:1605  _ */\n      pop\n        /* \"Quiz.sol\":2392:2546  function publishAnswers(uint[] memory answerKey) public isManager validStage(Stage.Pub) {\r... */\n      pop\n      jump\t// out\n        /* \"Quiz.sol\":1381:1418  mapping( address => bool) public user */\n    tag_48:\n      mstore(0x20, 0x02)\n      dup1\n      0x00\n      mstore\n      keccak256(0x00, 0x40)\n      0x00\n      swap2\n      pop\n      sload\n      swap1\n      0x0100\n      exp\n      swap1\n      div\n      0xff\n      and\n      dup2\n      jump\t// out\n        /* \"Quiz.sol\":3223:3414  function isUserRegistered() public view validStage(Stage.Play) returns (bool) {\r... */\n    tag_50:\n        /* \"Quiz.sol\":3295:3299  bool */\n      0x00\n        /* \"Quiz.sol\":3274:3284  Stage.Play */\n      0x02\n        /* \"Quiz.sol\":1689:1697  reqStage */\n      dup1\n        /* \"Quiz.sol\":1680:1697  stage == reqStage */\n      0x04\n      dup2\n      gt\n      iszero\n      tag_120\n      jumpi\n      invalid\n    tag_120:\n        /* \"Quiz.sol\":1680:1685  stage */\n      0x00\n      0x14\n      swap1\n      sload\n      swap1\n      0x0100\n      exp\n      swap1\n      div\n      0xff\n      and\n        /* \"Quiz.sol\":1680:1697  stage == reqStage */\n      0x04\n      dup2\n      gt\n      iszero\n      tag_121\n      jumpi\n      invalid\n    tag_121:\n      eq\n        /* \"Quiz.sol\":1672:1698  require(stage == reqStage) */\n      tag_122\n      jumpi\n      0x00\n      dup1\n      revert\n    tag_122:\n        /* \"Quiz.sol\":3335:3339  true */\n      0x01\n        /* \"Quiz.sol\":3315:3339  user[msg.sender] == true */\n      iszero\n      iszero\n        /* \"Quiz.sol\":3315:3319  user */\n      0x02\n        /* \"Quiz.sol\":3315:3331  user[msg.sender] */\n      0x00\n        /* \"Quiz.sol\":3320:3330  msg.sender */\n      caller\n        /* \"Quiz.sol\":3315:3331  user[msg.sender] */\n      0xffffffffffffffffffffffffffffffffffffffff\n      and\n      0xffffffffffffffffffffffffffffffffffffffff\n      and\n      dup2\n      mstore\n      0x20\n      add\n      swap1\n      dup2\n      mstore\n      0x20\n      add\n      0x00\n      keccak256\n      0x00\n      swap1\n      sload\n      swap1\n      0x0100\n      exp\n      swap1\n      div\n      0xff\n      and\n        /* \"Quiz.sol\":3315:3339  user[msg.sender] == true */\n      iszero\n      iszero\n      eq\n        /* \"Quiz.sol\":3312:3406  if(user[msg.sender] == true)\r... */\n      iszero\n      tag_124\n      jumpi\n        /* \"Quiz.sol\":3361:3365  true */\n      0x01\n        /* \"Quiz.sol\":3354:3365  return true */\n      swap2\n      pop\n      jump(tag_123)\n        /* \"Quiz.sol\":3312:3406  if(user[msg.sender] == true)\r... */\n    tag_124:\n        /* \"Quiz.sol\":3401:3406  false */\n      0x00\n        /* \"Quiz.sol\":3394:3406  return false */\n      swap2\n      pop\n        /* \"Quiz.sol\":1709:1710  _ */\n    tag_123:\n        /* \"Quiz.sol\":3223:3414  function isUserRegistered() public view validStage(Stage.Play) returns (bool) {\r... */\n      pop\n      swap1\n      jump\t// out\n        /* \"Quiz.sol\":2068:2164  function startReg() public isManager validStage(Stage.Init) {\r... */\n    tag_52:\n        /* \"Quiz.sol\":1585:1592  manager */\n      0x03\n      0x00\n      swap1\n      sload\n      swap1\n      0x0100\n      exp\n      swap1\n      div\n      0xffffffffffffffffffffffffffffffffffffffff\n      and\n        /* \"Quiz.sol\":1571:1592  msg.sender == manager */\n      0xffffffffffffffffffffffffffffffffffffffff\n      and\n        /* \"Quiz.sol\":1571:1581  msg.sender */\n      caller\n        /* \"Quiz.sol\":1571:1592  msg.sender == manager */\n      0xffffffffffffffffffffffffffffffffffffffff\n      and\n      eq\n        /* \"Quiz.sol\":1563:1593  require(msg.sender == manager) */\n      tag_127\n      jumpi\n      0x00\n      dup1\n      revert\n    tag_127:\n        /* \"Quiz.sol\":2116:2126  Stage.Init */\n      0x00\n        /* \"Quiz.sol\":1689:1697  reqStage */\n      dup1\n        /* \"Quiz.sol\":1680:1697  stage == reqStage */\n      0x04\n      dup2\n      gt\n      iszero\n      tag_129\n      jumpi\n      invalid\n    tag_129:\n        /* \"Quiz.sol\":1680:1685  stage */\n      0x00\n      0x14\n      swap1\n      sload\n      swap1\n      0x0100\n      exp\n      swap1\n      div\n      0xff\n      and\n        /* \"Quiz.sol\":1680:1697  stage == reqStage */\n      0x04\n      dup2\n      gt\n      iszero\n      tag_130\n      jumpi\n      invalid\n    tag_130:\n      eq\n        /* \"Quiz.sol\":1672:1698  require(stage == reqStage) */\n      tag_131\n      jumpi\n      0x00\n      dup1\n      revert\n    tag_131:\n        /* \"Quiz.sol\":2147:2156  Stage.Reg */\n      0x01\n        /* \"Quiz.sol\":2139:2144  stage */\n      0x00\n      0x14\n        /* \"Quiz.sol\":2139:2156  stage = Stage.Reg */\n      0x0100\n      exp\n      dup2\n      sload\n      dup2\n      0xff\n      mul\n      not\n      and\n      swap1\n      dup4\n      0x04\n      dup2\n      gt\n      iszero\n      tag_133\n      jumpi\n      invalid\n    tag_133:\n      mul\n      or\n      swap1\n      sstore\n      pop\n        /* \"Quiz.sol\":1604:1605  _ */\n      pop\n        /* \"Quiz.sol\":2068:2164  function startReg() public isManager validStage(Stage.Init) {\r... */\n      jump\t// out\n        /* \"Quiz.sol\":1305:1323  Stage public stage */\n    tag_54:\n      0x00\n      0x14\n      swap1\n      sload\n      swap1\n      0x0100\n      exp\n      swap1\n      div\n      0xff\n      and\n      dup2\n      jump\t// out\n        /* \"Quiz.sol\":3426:3692  function claimPrize(uint correctAnswers) public returns (bool) {         // function for user to claim prize coins\r... */\n    tag_58:\n        /* \"Quiz.sol\":3483:3487  bool */\n      0x00\n        /* \"Quiz.sol\":3576:3580  true */\n      0x01\n        /* \"Quiz.sol\":3558:3580  user[msg.sender]==true */\n      iszero\n      iszero\n        /* \"Quiz.sol\":3558:3562  user */\n      0x02\n        /* \"Quiz.sol\":3558:3574  user[msg.sender] */\n      0x00\n        /* \"Quiz.sol\":3563:3573  msg.sender */\n      caller\n        /* \"Quiz.sol\":3558:3574  user[msg.sender] */\n      0xffffffffffffffffffffffffffffffffffffffff\n      and\n      0xffffffffffffffffffffffffffffffffffffffff\n      and\n      dup2\n      mstore\n      0x20\n      add\n      swap1\n      dup2\n      mstore\n      0x20\n      add\n      0x00\n      keccak256\n      0x00\n      swap1\n      sload\n      swap1\n      0x0100\n      exp\n      swap1\n      div\n      0xff\n      and\n        /* \"Quiz.sol\":3558:3580  user[msg.sender]==true */\n      iszero\n      iszero\n      eq\n        /* \"Quiz.sol\":3550:3581  require(user[msg.sender]==true) */\n      tag_135\n      jumpi\n      0x00\n      dup1\n      revert\n    tag_135:\n        /* \"Quiz.sol\":3592:3602  uint coins */\n      0x00\n        /* \"Quiz.sol\":3624:3625  2 */\n      0x02\n        /* \"Quiz.sol\":3621:3622  3 */\n      0x03\n        /* \"Quiz.sol\":3606:3620  correctAnswers */\n      dup5\n        /* \"Quiz.sol\":3606:3622  correctAnswers*3 */\n      mul\n        /* \"Quiz.sol\":3605:3625  (correctAnswers*3)/2 */\n      dup2\n      tag_136\n      jumpi\n      invalid\n    tag_136:\n      div\n        /* \"Quiz.sol\":3592:3625  uint coins = (correctAnswers*3)/2 */\n      swap1\n      pop\n        /* \"Quiz.sol\":3643:3656  instanceEIP20 */\n      0x00\n      dup1\n      sload\n      swap1\n      0x0100\n      exp\n      swap1\n      div\n      0xffffffffffffffffffffffffffffffffffffffff\n      and\n        /* \"Quiz.sol\":3643:3665  instanceEIP20.transfer */\n      0xffffffffffffffffffffffffffffffffffffffff\n      and\n      0xa9059cbb\n        /* \"Quiz.sol\":3666:3676  msg.sender */\n      caller\n        /* \"Quiz.sol\":3678:3683  coins */\n      dup4\n        /* \"Quiz.sol\":3643:3684  instanceEIP20.transfer(msg.sender, coins) */\n      mload(0x40)\n      dup4\n      0xffffffff\n      and\n      0xe0\n      shl\n      dup2\n      mstore\n      0x04\n      add\n      dup1\n      dup4\n      0xffffffffffffffffffffffffffffffffffffffff\n      and\n      dup2\n      mstore\n      0x20\n      add\n      dup3\n      dup2\n      mstore\n      0x20\n      add\n      swap3\n      pop\n      pop\n      pop\n      0x20\n      mload(0x40)\n      dup1\n      dup4\n      sub\n      dup2\n      0x00\n      dup8\n      dup1\n      extcodesize\n      iszero\n      dup1\n      iszero\n      tag_137\n      jumpi\n      0x00\n      dup1\n      revert\n    tag_137:\n      pop\n      gas\n      call\n      iszero\n      dup1\n      iszero\n      tag_139\n      jumpi\n      returndatasize\n      0x00\n      dup1\n      returndatacopy\n      revert(0x00, returndatasize)\n    tag_139:\n      pop\n      pop\n      pop\n      pop\n      mload(0x40)\n      returndatasize\n      0x20\n      dup2\n      lt\n      iszero\n      tag_140\n      jumpi\n      0x00\n      dup1\n      revert\n    tag_140:\n      dup2\n      add\n      swap1\n      dup1\n      dup1\n      mload\n      swap1\n      0x20\n      add\n      swap1\n      swap3\n      swap2\n      swap1\n      pop\n      pop\n      pop\n        /* \"Quiz.sol\":3636:3684  return instanceEIP20.transfer(msg.sender, coins) */\n      swap2\n      pop\n      pop\n        /* \"Quiz.sol\":3426:3692  function claimPrize(uint correctAnswers) public returns (bool) {         // function for user to claim prize coins\r... */\n      swap2\n      swap1\n      pop\n      jump\t// out\n        /* \"Quiz.sol\":1900:2056  function getQuizBalance() public view returns (uint) {          //function to return the Quiz Contract balance\r... */\n    tag_60:\n        /* \"Quiz.sol\":1947:1951  uint */\n      0x00\n        /* \"Quiz.sol\":2027:2048  address(this).balance */\n      selfbalance\n        /* \"Quiz.sol\":2020:2048  return address(this).balance */\n      swap1\n      pop\n        /* \"Quiz.sol\":1900:2056  function getQuizBalance() public view returns (uint) {          //function to return the Quiz Contract balance\r... */\n      swap1\n      jump\t// out\n        /* \"Quiz.sol\":2685:3059  function getStage() public view returns (uint) {\r... */\n    tag_62:\n        /* \"Quiz.sol\":2726:2730  uint */\n      0x00\n        /* \"Quiz.sol\":2755:2765  Stage.Init */\n      dup1\n        /* \"Quiz.sol\":2746:2765  stage == Stage.Init */\n      0x04\n      dup2\n      gt\n      iszero\n      tag_143\n      jumpi\n      invalid\n    tag_143:\n        /* \"Quiz.sol\":2746:2751  stage */\n      0x00\n      0x14\n      swap1\n      sload\n      swap1\n      0x0100\n      exp\n      swap1\n      div\n      0xff\n      and\n        /* \"Quiz.sol\":2746:2765  stage == Stage.Init */\n      0x04\n      dup2\n      gt\n      iszero\n      tag_144\n      jumpi\n      invalid\n    tag_144:\n      eq\n        /* \"Quiz.sol\":2743:3051  if(stage == Stage.Init)\r... */\n      iszero\n      tag_145\n      jumpi\n        /* \"Quiz.sol\":2787:2788  0 */\n      0x00\n        /* \"Quiz.sol\":2780:2788  return 0 */\n      swap1\n      pop\n      jump(tag_142)\n        /* \"Quiz.sol\":2743:3051  if(stage == Stage.Init)\r... */\n    tag_145:\n        /* \"Quiz.sol\":2830:2839  Stage.Reg */\n      0x01\n        /* \"Quiz.sol\":2821:2839  stage == Stage.Reg */\n      0x04\n      dup2\n      gt\n      iszero\n      tag_147\n      jumpi\n      invalid\n    tag_147:\n        /* \"Quiz.sol\":2821:2826  stage */\n      0x00\n      0x14\n      swap1\n      sload\n      swap1\n      0x0100\n      exp\n      swap1\n      div\n      0xff\n      and\n        /* \"Quiz.sol\":2821:2839  stage == Stage.Reg */\n      0x04\n      dup2\n      gt\n      iszero\n      tag_148\n      jumpi\n      invalid\n    tag_148:\n      eq\n        /* \"Quiz.sol\":2818:3051  if(stage == Stage.Reg)\r... */\n      iszero\n      tag_149\n      jumpi\n        /* \"Quiz.sol\":2861:2862  1 */\n      0x01\n        /* \"Quiz.sol\":2854:2862  return 1 */\n      swap1\n      pop\n      jump(tag_142)\n        /* \"Quiz.sol\":2818:3051  if(stage == Stage.Reg)\r... */\n    tag_149:\n        /* \"Quiz.sol\":2900:2910  Stage.Play */\n      0x02\n        /* \"Quiz.sol\":2891:2910  stage == Stage.Play */\n      0x04\n      dup2\n      gt\n      iszero\n      tag_151\n      jumpi\n      invalid\n    tag_151:\n        /* \"Quiz.sol\":2891:2896  stage */\n      0x00\n      0x14\n      swap1\n      sload\n      swap1\n      0x0100\n      exp\n      swap1\n      div\n      0xff\n      and\n        /* \"Quiz.sol\":2891:2910  stage == Stage.Play */\n      0x04\n      dup2\n      gt\n      iszero\n      tag_152\n      jumpi\n      invalid\n    tag_152:\n      eq\n        /* \"Quiz.sol\":2888:3051  if(stage == Stage.Play)\r... */\n      iszero\n      tag_153\n      jumpi\n        /* \"Quiz.sol\":2932:2933  2 */\n      0x02\n        /* \"Quiz.sol\":2925:2933  return 2 */\n      swap1\n      pop\n      jump(tag_142)\n        /* \"Quiz.sol\":2888:3051  if(stage == Stage.Play)\r... */\n    tag_153:\n        /* \"Quiz.sol\":2971:2980  Stage.Pub */\n      0x03\n        /* \"Quiz.sol\":2962:2980  stage == Stage.Pub */\n      0x04\n      dup2\n      gt\n      iszero\n      tag_155\n      jumpi\n      invalid\n    tag_155:\n        /* \"Quiz.sol\":2962:2967  stage */\n      0x00\n      0x14\n      swap1\n      sload\n      swap1\n      0x0100\n      exp\n      swap1\n      div\n      0xff\n      and\n        /* \"Quiz.sol\":2962:2980  stage == Stage.Pub */\n      0x04\n      dup2\n      gt\n      iszero\n      tag_156\n      jumpi\n      invalid\n    tag_156:\n      eq\n        /* \"Quiz.sol\":2959:3051  if(stage == Stage.Pub)\r... */\n      iszero\n      tag_157\n      jumpi\n        /* \"Quiz.sol\":3002:3003  3 */\n      0x03\n        /* \"Quiz.sol\":2995:3003  return 3 */\n      swap1\n      pop\n      jump(tag_142)\n        /* \"Quiz.sol\":2959:3051  if(stage == Stage.Pub)\r... */\n    tag_157:\n        /* \"Quiz.sol\":3050:3051  4 */\n      0x04\n        /* \"Quiz.sol\":3043:3051  return 4 */\n      swap1\n      pop\n        /* \"Quiz.sol\":2685:3059  function getStage() public view returns (uint) {\r... */\n    tag_142:\n      swap1\n      jump\t// out\n    tag_117:\n      dup3\n      dup1\n      sload\n      dup3\n      dup3\n      sstore\n      swap1\n      0x00\n      mstore\n      keccak256(0x00, 0x20)\n      swap1\n      dup2\n      add\n      swap3\n      dup3\n      iszero\n      tag_159\n      jumpi\n      swap2\n      0x20\n      mul\n      dup3\n      add\n    tag_160:\n      dup3\n      dup2\n      gt\n      iszero\n      tag_161\n      jumpi\n      dup3\n      mload\n      dup3\n      sstore\n      swap2\n      0x20\n      add\n      swap2\n      swap1\n      0x01\n      add\n      swap1\n      jump(tag_160)\n    tag_161:\n    tag_159:\n      pop\n      swap1\n      pop\n      tag_162\n      swap2\n      swap1\n      tag_163\n      jump\t// in\n    tag_162:\n      pop\n      swap1\n      jump\t// out\n    tag_163:\n    tag_164:\n      dup1\n      dup3\n      gt\n      iszero\n      tag_165\n      jumpi\n      0x00\n      dup2\n      0x00\n      swap1\n      sstore\n      pop\n      0x01\n      add\n      jump(tag_164)\n    tag_165:\n      pop\n      swap1\n      jump\t// out\n\n    auxdata: 0xa2646970667358221220defea565b467fd3c18ed0427b41dbc20f1389fa4f149f375bdd1eefae044b66564736f6c63430007000033\n}\n","bytecode":{"linkReferences":{},"object":"608060405234801561001057600080fd5b50604051610f9d380380610f9d8339818101604052604081101561003357600080fd5b810190808051906020019092919080519060200190929190505050816000806101000a81548173ffffffffffffffffffffffffffffffffffffffff021916908373ffffffffffffffffffffffffffffffffffffffff16021790555080600360006101000a81548173ffffffffffffffffffffffffffffffffffffffff021916908373ffffffffffffffffffffffffffffffffffffffff16021790555060008060146101000a81548160ff021916908360048111156100ed57fe5b02179055505050610e9a806101036000396000f3fe608060405234801561001057600080fd5b50600436106100f55760003560e01c80636db92d7711610097578063c040e6b811610066578063c040e6b81461036d578063d709815414610396578063edb089cd146103da578063fcaa7664146103f8576100f5565b80636db92d771461023157806381e7e20e146102e9578063873138f314610343578063bedbc50114610363576100f5565b8063481c6a75116100d3578063481c6a75146101df5780634c3415e6146102135780634d3820eb1461021d5780635b0700a814610227576100f5565b8063016a3738146100fa57806317599cc51461013e57806332b4d36314610180575b600080fd5b61013c6004803603602081101561011057600080fd5b81019080803573ffffffffffffffffffffffffffffffffffffffff169060200190929190505050610416565b005b61016a6004803603602081101561015457600080fd5b810190808035906020019092919050505061064f565b6040518082815260200191505060405180910390f35b610188610670565b6040518080602001828103825283818151815260200191508051906020019060200280838360005b838110156101cb5780820151818401526020810190506101b0565b505050509050019250505060405180910390f35b6101e76106fc565b604051808273ffffffffffffffffffffffffffffffffffffffff16815260200191505060405180910390f35b61021b610722565b005b6102256107d6565b005b61022f6108c1565b005b6102e76004803603602081101561024757600080fd5b810190808035906020019064010000000081111561026457600080fd5b82018360208201111561027657600080fd5b8035906020019184602083028401116401000000008311171561029857600080fd5b919080806020026020016040519081016040528093929190818152602001838360200280828437600081840152601f19601f820116905080830192505050505050509192919290505050610975565b005b61032b600480360360208110156102ff57600080fd5b81019080803573ffffffffffffffffffffffffffffffffffffffff169060200190929190505050610a41565b60405180821515815260200191505060405180910390f35b61034b610a61565b60405180821515815260200191505060405180910390f35b61036b610b01565b005b610375610bb5565b6040518082600481111561038557fe5b815260200191505060405180910390f35b6103c2600480360360208110156103ac57600080fd5b8101908080359060200190929190505050610bc8565b60405180821515815260200191505060405180910390f35b6103e2610d0d565b6040518082815260200191505060405180910390f35b610400610d15565b6040518082815260200191505060405180910390f35b600360009054906101000a900473ffffffffffffffffffffffffffffffffffffffff1673ffffffffffffffffffffffffffffffffffffffff163373ffffffffffffffffffffffffffffffffffffffff161461047057600080fd5b600480600481111561047e57fe5b600060149054906101000a900460ff16600481111561049957fe5b146104a357600080fd5b600030905060008054906101000a900473ffffffffffffffffffffffffffffffffffffffff1673ffffffffffffffffffffffffffffffffffffffff1663a9059cbb3360008054906101000a900473ffffffffffffffffffffffffffffffffffffffff1673ffffffffffffffffffffffffffffffffffffffff166370a08231856040518263ffffffff1660e01b8152600401808273ffffffffffffffffffffffffffffffffffffffff16815260200191505060206040518083038186803b15801561056c57600080fd5b505afa158015610580573d6000803e3d6000fd5b505050506040513d602081101561059657600080fd5b81019080805190602001909291905050506040518363ffffffff1660e01b8152600401808373ffffffffffffffffffffffffffffffffffffffff16815260200182815260200192505050602060405180830381600087803b1580156105fa57600080fd5b505af115801561060e573d6000803e3d6000fd5b505050506040513d602081101561062457600080fd5b8101908080519060200190929190505050508273ffffffffffffffffffffffffffffffffffffffff16ff5b6001818154811061065c57fe5b906000526020600020016000915090505481565b6060600480600481111561068057fe5b600060149054906101000a900460ff16600481111561069b57fe5b146106a557600080fd5b60018054806020026020016040519081016040528092919081815260200182805480156106f157602002820191906000526020600020905b8154815260200190600101908083116106dd575b505050505091505090565b600360009054906101000a900473ffffffffffffffffffffffffffffffffffffffff1681565b600360009054906101000a900473ffffffffffffffffffffffffffffffffffffffff1673ffffffffffffffffffffffffffffffffffffffff163373ffffffffffffffffffffffffffffffffffffffff161461077c57600080fd5b600180600481111561078a57fe5b600060149054906101000a900460ff1660048111156107a557fe5b146107af57600080fd5b6002600060146101000a81548160ff021916908360048111156107ce57fe5b021790555050565b60018060048111156107e457fe5b600060149054906101000a900460ff1660048111156107ff57fe5b1461080957600080fd5b60001515600260003373ffffffffffffffffffffffffffffffffffffffff1673ffffffffffffffffffffffffffffffffffffffff16815260200190815260200160002060009054906101000a900460ff1615151461086657600080fd5b6001600260003373ffffffffffffffffffffffffffffffffffffffff1673ffffffffffffffffffffffffffffffffffffffff16815260200190815260200160002060006101000a81548160ff02191690831515021790555050565b600360009054906101000a900473ffffffffffffffffffffffffffffffffffffffff1673ffffffffffffffffffffffffffffffffffffffff163373ffffffffffffffffffffffffffffffffffffffff161461091b57600080fd5b600280600481111561092957fe5b600060149054906101000a900460ff16600481111561094457fe5b1461094e57600080fd5b6003600060146101000a81548160ff0219169083600481111561096d57fe5b021790555050565b600360009054906101000a900473ffffffffffffffffffffffffffffffffffffffff1673ffffffffffffffffffffffffffffffffffffffff163373ffffffffffffffffffffffffffffffffffffffff16146109cf57600080fd5b60038060048111156109dd57fe5b600060149054906101000a900460ff1660048111156109f857fe5b14610a0257600080fd5b8160019080519060200190610a18929190610dfa565b506004600060146101000a81548160ff02191690836004811115610a3857fe5b02179055505050565b60026020528060005260406000206000915054906101000a900460ff1681565b60006002806004811115610a7157fe5b600060149054906101000a900460ff166004811115610a8c57fe5b14610a9657600080fd5b60011515600260003373ffffffffffffffffffffffffffffffffffffffff1673ffffffffffffffffffffffffffffffffffffffff16815260200190815260200160002060009054906101000a900460ff1615151415610af85760019150610afd565b600091505b5090565b600360009054906101000a900473ffffffffffffffffffffffffffffffffffffffff1673ffffffffffffffffffffffffffffffffffffffff163373ffffffffffffffffffffffffffffffffffffffff1614610b5b57600080fd5b6000806004811115610b6957fe5b600060149054906101000a900460ff166004811115610b8457fe5b14610b8e57600080fd5b6001600060146101000a81548160ff02191690836004811115610bad57fe5b021790555050565b600060149054906101000a900460ff1681565b600060011515600260003373ffffffffffffffffffffffffffffffffffffffff1673ffffffffffffffffffffffffffffffffffffffff16815260200190815260200160002060009054906101000a900460ff16151514610c2757600080fd5b600060026003840281610c3657fe5b04905060008054906101000a900473ffffffffffffffffffffffffffffffffffffffff1673ffffffffffffffffffffffffffffffffffffffff1663a9059cbb33836040518363ffffffff1660e01b8152600401808373ffffffffffffffffffffffffffffffffffffffff16815260200182815260200192505050602060405180830381600087803b158015610cca57600080fd5b505af1158015610cde573d6000803e3d6000fd5b505050506040513d6020811015610cf457600080fd5b8101908080519060200190929190505050915050919050565b600047905090565b6000806004811115610d2357fe5b600060149054906101000a900460ff166004811115610d3e57fe5b1415610d4d5760009050610df7565b60016004811115610d5a57fe5b600060149054906101000a900460ff166004811115610d7557fe5b1415610d845760019050610df7565b60026004811115610d9157fe5b600060149054906101000a900460ff166004811115610dac57fe5b1415610dbb5760029050610df7565b60036004811115610dc857fe5b600060149054906101000a900460ff166004811115610de357fe5b1415610df25760039050610df7565b600490505b90565b828054828255906000526020600020908101928215610e36579160200282015b82811115610e35578251825591602001919060010190610e1a565b5b509050610e439190610e47565b5090565b5b80821115610e60576000816000905550600101610e48565b509056fea2646970667358221220defea565b467fd3c18ed0427b41dbc20f1389fa4f149f375bdd1eefae044b66564736f6c63430007000033","opcodes":"PUSH1 0x80 PUSH1 0x40 MSTORE CALLVALUE DUP1 ISZERO PUSH2 0x10 JUMPI PUSH1 0x0 DUP1 REVERT JUMPDEST POP PUSH1 0x40 MLOAD PUSH2 0xF9D CODESIZE SUB DUP1 PUSH2 0xF9D DUP4 CODECOPY DUP2 DUP2 ADD PUSH1 0x40 MSTORE PUSH1 0x40 DUP2 LT ISZERO PUSH2 0x33 JUMPI PUSH1 0x0 DUP1 REVERT JUMPDEST DUP2 ADD SWAP1 DUP1 DUP1 MLOAD SWAP1 PUSH1 0x20 ADD SWAP1 SWAP3 SWAP2 SWAP1 DUP1 MLOAD SWAP1 PUSH1 0x20 ADD SWAP1 SWAP3 SWAP2 SWAP1 POP POP POP DUP2 PUSH1 0x0 DUP1 PUSH2 0x100 EXP DUP2 SLOAD DUP2 PUSH20 0xFFFFFFFFFFFFFFFFFFFFFFFFFFFFFFFFFFFFFFFF MUL NOT AND SWAP1 DUP4 PUSH20 0xFFFFFFFFFFFFFFFFFFFFFFFFFFFFFFFFFFFFFFFF AND MUL OR SWAP1 SSTORE POP DUP1 PUSH1 0x3 PUSH1 0x0 PUSH2 0x100 EXP DUP2 SLOAD DUP2 PUSH20 0xFFFFFFFFFFFFFFFFFFFFFFFFFFFFFFFFFFFFFFFF MUL NOT AND SWAP1 DUP4 PUSH20 0xFFFFFFFFFFFFFFFFFFFFFFFFFFFFFFFFFFFFFFFF AND MUL OR SWAP1 SSTORE POP PUSH1 0x0 DUP1 PUSH1 0x14 PUSH2 0x100 EXP DUP2 SLOAD DUP2 PUSH1 0xFF MUL NOT AND SWAP1 DUP4 PUSH1 0x4 DUP2 GT ISZERO PUSH2 0xED JUMPI INVALID JUMPDEST MUL OR SWAP1 SSTORE POP POP POP PUSH2 0xE9A DUP1 PUSH2 0x103 PUSH1 0x0 CODECOPY PUSH1 0x0 RETURN INVALID PUSH1 0x80 PUSH1 0x40 MSTORE CALLVALUE DUP1 ISZERO PUSH2 0x10 JUMPI PUSH1 0x0 DUP1 REVERT JUMPDEST POP PUSH1 0x4 CALLDATASIZE LT PUSH2 0xF5 JUMPI PUSH1 0x0 CALLDATALOAD PUSH1 0xE0 SHR DUP1 PUSH4 0x6DB92D77 GT PUSH2 0x97 JUMPI DUP1 PUSH4 0xC040E6B8 GT PUSH2 0x66 JUMPI DUP1 PUSH4 0xC040E6B8 EQ PUSH2 0x36D JUMPI DUP1 PUSH4 0xD7098154 EQ PUSH2 0x396 JUMPI DUP1 PUSH4 0xEDB089CD EQ PUSH2 0x3DA JUMPI DUP1 PUSH4 0xFCAA7664 EQ PUSH2 0x3F8 JUMPI PUSH2 0xF5 JUMP JUMPDEST DUP1 PUSH4 0x6DB92D77 EQ PUSH2 0x231 JUMPI DUP1 PUSH4 0x81E7E20E EQ PUSH2 0x2E9 JUMPI DUP1 PUSH4 0x873138F3 EQ PUSH2 0x343 JUMPI DUP1 PUSH4 0xBEDBC501 EQ PUSH2 0x363 JUMPI PUSH2 0xF5 JUMP JUMPDEST DUP1 PUSH4 0x481C6A75 GT PUSH2 0xD3 JUMPI DUP1 PUSH4 0x481C6A75 EQ PUSH2 0x1DF JUMPI DUP1 PUSH4 0x4C3415E6 EQ PUSH2 0x213 JUMPI DUP1 PUSH4 0x4D3820EB EQ PUSH2 0x21D JUMPI DUP1 PUSH4 0x5B0700A8 EQ PUSH2 0x227 JUMPI PUSH2 0xF5 JUMP JUMPDEST DUP1 PUSH4 0x16A3738 EQ PUSH2 0xFA JUMPI DUP1 PUSH4 0x17599CC5 EQ PUSH2 0x13E JUMPI DUP1 PUSH4 0x32B4D363 EQ PUSH2 0x180 JUMPI JUMPDEST PUSH1 0x0 DUP1 REVERT JUMPDEST PUSH2 0x13C PUSH1 0x4 DUP1 CALLDATASIZE SUB PUSH1 0x20 DUP2 LT ISZERO PUSH2 0x110 JUMPI PUSH1 0x0 DUP1 REVERT JUMPDEST DUP2 ADD SWAP1 DUP1 DUP1 CALLDATALOAD PUSH20 0xFFFFFFFFFFFFFFFFFFFFFFFFFFFFFFFFFFFFFFFF AND SWAP1 PUSH1 0x20 ADD SWAP1 SWAP3 SWAP2 SWAP1 POP POP POP PUSH2 0x416 JUMP JUMPDEST STOP JUMPDEST PUSH2 0x16A PUSH1 0x4 DUP1 CALLDATASIZE SUB PUSH1 0x20 DUP2 LT ISZERO PUSH2 0x154 JUMPI PUSH1 0x0 DUP1 REVERT JUMPDEST DUP2 ADD SWAP1 DUP1 DUP1 CALLDATALOAD SWAP1 PUSH1 0x20 ADD SWAP1 SWAP3 SWAP2 SWAP1 POP POP POP PUSH2 0x64F JUMP JUMPDEST PUSH1 0x40 MLOAD DUP1 DUP3 DUP2 MSTORE PUSH1 0x20 ADD SWAP2 POP POP PUSH1 0x40 MLOAD DUP1 SWAP2 SUB SWAP1 RETURN JUMPDEST PUSH2 0x188 PUSH2 0x670 JUMP JUMPDEST PUSH1 0x40 MLOAD DUP1 DUP1 PUSH1 0x20 ADD DUP3 DUP2 SUB DUP3 MSTORE DUP4 DUP2 DUP2 MLOAD DUP2 MSTORE PUSH1 0x20 ADD SWAP2 POP DUP1 MLOAD SWAP1 PUSH1 0x20 ADD SWAP1 PUSH1 0x20 MUL DUP1 DUP4 DUP4 PUSH1 0x0 JUMPDEST DUP4 DUP2 LT ISZERO PUSH2 0x1CB JUMPI DUP1 DUP3 ADD MLOAD DUP2 DUP5 ADD MSTORE PUSH1 0x20 DUP2 ADD SWAP1 POP PUSH2 0x1B0 JUMP JUMPDEST POP POP POP POP SWAP1 POP ADD SWAP3 POP POP POP PUSH1 0x40 MLOAD DUP1 SWAP2 SUB SWAP1 RETURN JUMPDEST PUSH2 0x1E7 PUSH2 0x6FC JUMP JUMPDEST PUSH1 0x40 MLOAD DUP1 DUP3 PUSH20 0xFFFFFFFFFFFFFFFFFFFFFFFFFFFFFFFFFFFFFFFF AND DUP2 MSTORE PUSH1 0x20 ADD SWAP2 POP POP PUSH1 0x40 MLOAD DUP1 SWAP2 SUB SWAP1 RETURN JUMPDEST PUSH2 0x21B PUSH2 0x722 JUMP JUMPDEST STOP JUMPDEST PUSH2 0x225 PUSH2 0x7D6 JUMP JUMPDEST STOP JUMPDEST PUSH2 0x22F PUSH2 0x8C1 JUMP JUMPDEST STOP JUMPDEST PUSH2 0x2E7 PUSH1 0x4 DUP1 CALLDATASIZE SUB PUSH1 0x20 DUP2 LT ISZERO PUSH2 0x247 JUMPI PUSH1 0x0 DUP1 REVERT JUMPDEST DUP2 ADD SWAP1 DUP1 DUP1 CALLDATALOAD SWAP1 PUSH1 0x20 ADD SWAP1 PUSH5 0x100000000 DUP2 GT ISZERO PUSH2 0x264 JUMPI PUSH1 0x0 DUP1 REVERT JUMPDEST DUP3 ADD DUP4 PUSH1 0x20 DUP3 ADD GT ISZERO PUSH2 0x276 JUMPI PUSH1 0x0 DUP1 REVERT JUMPDEST DUP1 CALLDATALOAD SWAP1 PUSH1 0x20 ADD SWAP2 DUP5 PUSH1 0x20 DUP4 MUL DUP5 ADD GT PUSH5 0x100000000 DUP4 GT OR ISZERO PUSH2 0x298 JUMPI PUSH1 0x0 DUP1 REVERT JUMPDEST SWAP2 SWAP1 DUP1 DUP1 PUSH1 0x20 MUL PUSH1 0x20 ADD PUSH1 0x40 MLOAD SWAP1 DUP2 ADD PUSH1 0x40 MSTORE DUP1 SWAP4 SWAP3 SWAP2 SWAP1 DUP2 DUP2 MSTORE PUSH1 0x20 ADD DUP4 DUP4 PUSH1 0x20 MUL DUP1 DUP3 DUP5 CALLDATACOPY PUSH1 0x0 DUP2 DUP5 ADD MSTORE PUSH1 0x1F NOT PUSH1 0x1F DUP3 ADD AND SWAP1 POP DUP1 DUP4 ADD SWAP3 POP POP POP POP POP POP POP SWAP2 SWAP3 SWAP2 SWAP3 SWAP1 POP POP POP PUSH2 0x975 JUMP JUMPDEST STOP JUMPDEST PUSH2 0x32B PUSH1 0x4 DUP1 CALLDATASIZE SUB PUSH1 0x20 DUP2 LT ISZERO PUSH2 0x2FF JUMPI PUSH1 0x0 DUP1 REVERT JUMPDEST DUP2 ADD SWAP1 DUP1 DUP1 CALLDATALOAD PUSH20 0xFFFFFFFFFFFFFFFFFFFFFFFFFFFFFFFFFFFFFFFF AND SWAP1 PUSH1 0x20 ADD SWAP1 SWAP3 SWAP2 SWAP1 POP POP POP PUSH2 0xA41 JUMP JUMPDEST PUSH1 0x40 MLOAD DUP1 DUP3 ISZERO ISZERO DUP2 MSTORE PUSH1 0x20 ADD SWAP2 POP POP PUSH1 0x40 MLOAD DUP1 SWAP2 SUB SWAP1 RETURN JUMPDEST PUSH2 0x34B PUSH2 0xA61 JUMP JUMPDEST PUSH1 0x40 MLOAD DUP1 DUP3 ISZERO ISZERO DUP2 MSTORE PUSH1 0x20 ADD SWAP2 POP POP PUSH1 0x40 MLOAD DUP1 SWAP2 SUB SWAP1 RETURN JUMPDEST PUSH2 0x36B PUSH2 0xB01 JUMP JUMPDEST STOP JUMPDEST PUSH2 0x375 PUSH2 0xBB5 JUMP JUMPDEST PUSH1 0x40 MLOAD DUP1 DUP3 PUSH1 0x4 DUP2 GT ISZERO PUSH2 0x385 JUMPI INVALID JUMPDEST DUP2 MSTORE PUSH1 0x20 ADD SWAP2 POP POP PUSH1 0x40 MLOAD DUP1 SWAP2 SUB SWAP1 RETURN JUMPDEST PUSH2 0x3C2 PUSH1 0x4 DUP1 CALLDATASIZE SUB PUSH1 0x20 DUP2 LT ISZERO PUSH2 0x3AC JUMPI PUSH1 0x0 DUP1 REVERT JUMPDEST DUP2 ADD SWAP1 DUP1 DUP1 CALLDATALOAD SWAP1 PUSH1 0x20 ADD SWAP1 SWAP3 SWAP2 SWAP1 POP POP POP PUSH2 0xBC8 JUMP JUMPDEST PUSH1 0x40 MLOAD DUP1 DUP3 ISZERO ISZERO DUP2 MSTORE PUSH1 0x20 ADD SWAP2 POP POP PUSH1 0x40 MLOAD DUP1 SWAP2 SUB SWAP1 RETURN JUMPDEST PUSH2 0x3E2 PUSH2 0xD0D JUMP JUMPDEST PUSH1 0x40 MLOAD DUP1 DUP3 DUP2 MSTORE PUSH1 0x20 ADD SWAP2 POP POP PUSH1 0x40 MLOAD DUP1 SWAP2 SUB SWAP1 RETURN JUMPDEST PUSH2 0x400 PUSH2 0xD15 JUMP JUMPDEST PUSH1 0x40 MLOAD DUP1 DUP3 DUP2 MSTORE PUSH1 0x20 ADD SWAP2 POP POP PUSH1 0x40 MLOAD DUP1 SWAP2 SUB SWAP1 RETURN JUMPDEST PUSH1 0x3 PUSH1 0x0 SWAP1 SLOAD SWAP1 PUSH2 0x100 EXP SWAP1 DIV PUSH20 0xFFFFFFFFFFFFFFFFFFFFFFFFFFFFFFFFFFFFFFFF AND PUSH20 0xFFFFFFFFFFFFFFFFFFFFFFFFFFFFFFFFFFFFFFFF AND CALLER PUSH20 0xFFFFFFFFFFFFFFFFFFFFFFFFFFFFFFFFFFFFFFFF AND EQ PUSH2 0x470 JUMPI PUSH1 0x0 DUP1 REVERT JUMPDEST PUSH1 0x4 DUP1 PUSH1 0x4 DUP2 GT ISZERO PUSH2 0x47E JUMPI INVALID JUMPDEST PUSH1 0x0 PUSH1 0x14 SWAP1 SLOAD SWAP1 PUSH2 0x100 EXP SWAP1 DIV PUSH1 0xFF AND PUSH1 0x4 DUP2 GT ISZERO PUSH2 0x499 JUMPI INVALID JUMPDEST EQ PUSH2 0x4A3 JUMPI PUSH1 0x0 DUP1 REVERT JUMPDEST PUSH1 0x0 ADDRESS SWAP1 POP PUSH1 0x0 DUP1 SLOAD SWAP1 PUSH2 0x100 EXP SWAP1 DIV PUSH20 0xFFFFFFFFFFFFFFFFFFFFFFFFFFFFFFFFFFFFFFFF AND PUSH20 0xFFFFFFFFFFFFFFFFFFFFFFFFFFFFFFFFFFFFFFFF AND PUSH4 0xA9059CBB CALLER PUSH1 0x0 DUP1 SLOAD SWAP1 PUSH2 0x100 EXP SWAP1 DIV PUSH20 0xFFFFFFFFFFFFFFFFFFFFFFFFFFFFFFFFFFFFFFFF AND PUSH20 0xFFFFFFFFFFFFFFFFFFFFFFFFFFFFFFFFFFFFFFFF AND PUSH4 0x70A08231 DUP6 PUSH1 0x40 MLOAD DUP3 PUSH4 0xFFFFFFFF AND PUSH1 0xE0 SHL DUP2 MSTORE PUSH1 0x4 ADD DUP1 DUP3 PUSH20 0xFFFFFFFFFFFFFFFFFFFFFFFFFFFFFFFFFFFFFFFF AND DUP2 MSTORE PUSH1 0x20 ADD SWAP2 POP POP PUSH1 0x20 PUSH1 0x40 MLOAD DUP1 DUP4 SUB DUP2 DUP7 DUP1 EXTCODESIZE ISZERO DUP1 ISZERO PUSH2 0x56C JUMPI PUSH1 0x0 DUP1 REVERT JUMPDEST POP GAS STATICCALL ISZERO DUP1 ISZERO PUSH2 0x580 JUMPI RETURNDATASIZE PUSH1 0x0 DUP1 RETURNDATACOPY RETURNDATASIZE PUSH1 0x0 REVERT JUMPDEST POP POP POP POP PUSH1 0x40 MLOAD RETURNDATASIZE PUSH1 0x20 DUP2 LT ISZERO PUSH2 0x596 JUMPI PUSH1 0x0 DUP1 REVERT JUMPDEST DUP2 ADD SWAP1 DUP1 DUP1 MLOAD SWAP1 PUSH1 0x20 ADD SWAP1 SWAP3 SWAP2 SWAP1 POP POP POP PUSH1 0x40 MLOAD DUP4 PUSH4 0xFFFFFFFF AND PUSH1 0xE0 SHL DUP2 MSTORE PUSH1 0x4 ADD DUP1 DUP4 PUSH20 0xFFFFFFFFFFFFFFFFFFFFFFFFFFFFFFFFFFFFFFFF AND DUP2 MSTORE PUSH1 0x20 ADD DUP3 DUP2 MSTORE PUSH1 0x20 ADD SWAP3 POP POP POP PUSH1 0x20 PUSH1 0x40 MLOAD DUP1 DUP4 SUB DUP2 PUSH1 0x0 DUP8 DUP1 EXTCODESIZE ISZERO DUP1 ISZERO PUSH2 0x5FA JUMPI PUSH1 0x0 DUP1 REVERT JUMPDEST POP GAS CALL ISZERO DUP1 ISZERO PUSH2 0x60E JUMPI RETURNDATASIZE PUSH1 0x0 DUP1 RETURNDATACOPY RETURNDATASIZE PUSH1 0x0 REVERT JUMPDEST POP POP POP POP PUSH1 0x40 MLOAD RETURNDATASIZE PUSH1 0x20 DUP2 LT ISZERO PUSH2 0x624 JUMPI PUSH1 0x0 DUP1 REVERT JUMPDEST DUP2 ADD SWAP1 DUP1 DUP1 MLOAD SWAP1 PUSH1 0x20 ADD SWAP1 SWAP3 SWAP2 SWAP1 POP POP POP POP DUP3 PUSH20 0xFFFFFFFFFFFFFFFFFFFFFFFFFFFFFFFFFFFFFFFF AND SELFDESTRUCT JUMPDEST PUSH1 0x1 DUP2 DUP2 SLOAD DUP2 LT PUSH2 0x65C JUMPI INVALID JUMPDEST SWAP1 PUSH1 0x0 MSTORE PUSH1 0x20 PUSH1 0x0 KECCAK256 ADD PUSH1 0x0 SWAP2 POP SWAP1 POP SLOAD DUP2 JUMP JUMPDEST PUSH1 0x60 PUSH1 0x4 DUP1 PUSH1 0x4 DUP2 GT ISZERO PUSH2 0x680 JUMPI INVALID JUMPDEST PUSH1 0x0 PUSH1 0x14 SWAP1 SLOAD SWAP1 PUSH2 0x100 EXP SWAP1 DIV PUSH1 0xFF AND PUSH1 0x4 DUP2 GT ISZERO PUSH2 0x69B JUMPI INVALID JUMPDEST EQ PUSH2 0x6A5 JUMPI PUSH1 0x0 DUP1 REVERT JUMPDEST PUSH1 0x1 DUP1 SLOAD DUP1 PUSH1 0x20 MUL PUSH1 0x20 ADD PUSH1 0x40 MLOAD SWAP1 DUP2 ADD PUSH1 0x40 MSTORE DUP1 SWAP3 SWAP2 SWAP1 DUP2 DUP2 MSTORE PUSH1 0x20 ADD DUP3 DUP1 SLOAD DUP1 ISZERO PUSH2 0x6F1 JUMPI PUSH1 0x20 MUL DUP3 ADD SWAP2 SWAP1 PUSH1 0x0 MSTORE PUSH1 0x20 PUSH1 0x0 KECCAK256 SWAP1 JUMPDEST DUP2 SLOAD DUP2 MSTORE PUSH1 0x20 ADD SWAP1 PUSH1 0x1 ADD SWAP1 DUP1 DUP4 GT PUSH2 0x6DD JUMPI JUMPDEST POP POP POP POP POP SWAP2 POP POP SWAP1 JUMP JUMPDEST PUSH1 0x3 PUSH1 0x0 SWAP1 SLOAD SWAP1 PUSH2 0x100 EXP SWAP1 DIV PUSH20 0xFFFFFFFFFFFFFFFFFFFFFFFFFFFFFFFFFFFFFFFF AND DUP2 JUMP JUMPDEST PUSH1 0x3 PUSH1 0x0 SWAP1 SLOAD SWAP1 PUSH2 0x100 EXP SWAP1 DIV PUSH20 0xFFFFFFFFFFFFFFFFFFFFFFFFFFFFFFFFFFFFFFFF AND PUSH20 0xFFFFFFFFFFFFFFFFFFFFFFFFFFFFFFFFFFFFFFFF AND CALLER PUSH20 0xFFFFFFFFFFFFFFFFFFFFFFFFFFFFFFFFFFFFFFFF AND EQ PUSH2 0x77C JUMPI PUSH1 0x0 DUP1 REVERT JUMPDEST PUSH1 0x1 DUP1 PUSH1 0x4 DUP2 GT ISZERO PUSH2 0x78A JUMPI INVALID JUMPDEST PUSH1 0x0 PUSH1 0x14 SWAP1 SLOAD SWAP1 PUSH2 0x100 EXP SWAP1 DIV PUSH1 0xFF AND PUSH1 0x4 DUP2 GT ISZERO PUSH2 0x7A5 JUMPI INVALID JUMPDEST EQ PUSH2 0x7AF JUMPI PUSH1 0x0 DUP1 REVERT JUMPDEST PUSH1 0x2 PUSH1 0x0 PUSH1 0x14 PUSH2 0x100 EXP DUP2 SLOAD DUP2 PUSH1 0xFF MUL NOT AND SWAP1 DUP4 PUSH1 0x4 DUP2 GT ISZERO PUSH2 0x7CE JUMPI INVALID JUMPDEST MUL OR SWAP1 SSTORE POP POP JUMP JUMPDEST PUSH1 0x1 DUP1 PUSH1 0x4 DUP2 GT ISZERO PUSH2 0x7E4 JUMPI INVALID JUMPDEST PUSH1 0x0 PUSH1 0x14 SWAP1 SLOAD SWAP1 PUSH2 0x100 EXP SWAP1 DIV PUSH1 0xFF AND PUSH1 0x4 DUP2 GT ISZERO PUSH2 0x7FF JUMPI INVALID JUMPDEST EQ PUSH2 0x809 JUMPI PUSH1 0x0 DUP1 REVERT JUMPDEST PUSH1 0x0 ISZERO ISZERO PUSH1 0x2 PUSH1 0x0 CALLER PUSH20 0xFFFFFFFFFFFFFFFFFFFFFFFFFFFFFFFFFFFFFFFF AND PUSH20 0xFFFFFFFFFFFFFFFFFFFFFFFFFFFFFFFFFFFFFFFF AND DUP2 MSTORE PUSH1 0x20 ADD SWAP1 DUP2 MSTORE PUSH1 0x20 ADD PUSH1 0x0 KECCAK256 PUSH1 0x0 SWAP1 SLOAD SWAP1 PUSH2 0x100 EXP SWAP1 DIV PUSH1 0xFF AND ISZERO ISZERO EQ PUSH2 0x866 JUMPI PUSH1 0x0 DUP1 REVERT JUMPDEST PUSH1 0x1 PUSH1 0x2 PUSH1 0x0 CALLER PUSH20 0xFFFFFFFFFFFFFFFFFFFFFFFFFFFFFFFFFFFFFFFF AND PUSH20 0xFFFFFFFFFFFFFFFFFFFFFFFFFFFFFFFFFFFFFFFF AND DUP2 MSTORE PUSH1 0x20 ADD SWAP1 DUP2 MSTORE PUSH1 0x20 ADD PUSH1 0x0 KECCAK256 PUSH1 0x0 PUSH2 0x100 EXP DUP2 SLOAD DUP2 PUSH1 0xFF MUL NOT AND SWAP1 DUP4 ISZERO ISZERO MUL OR SWAP1 SSTORE POP POP JUMP JUMPDEST PUSH1 0x3 PUSH1 0x0 SWAP1 SLOAD SWAP1 PUSH2 0x100 EXP SWAP1 DIV PUSH20 0xFFFFFFFFFFFFFFFFFFFFFFFFFFFFFFFFFFFFFFFF AND PUSH20 0xFFFFFFFFFFFFFFFFFFFFFFFFFFFFFFFFFFFFFFFF AND CALLER PUSH20 0xFFFFFFFFFFFFFFFFFFFFFFFFFFFFFFFFFFFFFFFF AND EQ PUSH2 0x91B JUMPI PUSH1 0x0 DUP1 REVERT JUMPDEST PUSH1 0x2 DUP1 PUSH1 0x4 DUP2 GT ISZERO PUSH2 0x929 JUMPI INVALID JUMPDEST PUSH1 0x0 PUSH1 0x14 SWAP1 SLOAD SWAP1 PUSH2 0x100 EXP SWAP1 DIV PUSH1 0xFF AND PUSH1 0x4 DUP2 GT ISZERO PUSH2 0x944 JUMPI INVALID JUMPDEST EQ PUSH2 0x94E JUMPI PUSH1 0x0 DUP1 REVERT JUMPDEST PUSH1 0x3 PUSH1 0x0 PUSH1 0x14 PUSH2 0x100 EXP DUP2 SLOAD DUP2 PUSH1 0xFF MUL NOT AND SWAP1 DUP4 PUSH1 0x4 DUP2 GT ISZERO PUSH2 0x96D JUMPI INVALID JUMPDEST MUL OR SWAP1 SSTORE POP POP JUMP JUMPDEST PUSH1 0x3 PUSH1 0x0 SWAP1 SLOAD SWAP1 PUSH2 0x100 EXP SWAP1 DIV PUSH20 0xFFFFFFFFFFFFFFFFFFFFFFFFFFFFFFFFFFFFFFFF AND PUSH20 0xFFFFFFFFFFFFFFFFFFFFFFFFFFFFFFFFFFFFFFFF AND CALLER PUSH20 0xFFFFFFFFFFFFFFFFFFFFFFFFFFFFFFFFFFFFFFFF AND EQ PUSH2 0x9CF JUMPI PUSH1 0x0 DUP1 REVERT JUMPDEST PUSH1 0x3 DUP1 PUSH1 0x4 DUP2 GT ISZERO PUSH2 0x9DD JUMPI INVALID JUMPDEST PUSH1 0x0 PUSH1 0x14 SWAP1 SLOAD SWAP1 PUSH2 0x100 EXP SWAP1 DIV PUSH1 0xFF AND PUSH1 0x4 DUP2 GT ISZERO PUSH2 0x9F8 JUMPI INVALID JUMPDEST EQ PUSH2 0xA02 JUMPI PUSH1 0x0 DUP1 REVERT JUMPDEST DUP2 PUSH1 0x1 SWAP1 DUP1 MLOAD SWAP1 PUSH1 0x20 ADD SWAP1 PUSH2 0xA18 SWAP3 SWAP2 SWAP1 PUSH2 0xDFA JUMP JUMPDEST POP PUSH1 0x4 PUSH1 0x0 PUSH1 0x14 PUSH2 0x100 EXP DUP2 SLOAD DUP2 PUSH1 0xFF MUL NOT AND SWAP1 DUP4 PUSH1 0x4 DUP2 GT ISZERO PUSH2 0xA38 JUMPI INVALID JUMPDEST MUL OR SWAP1 SSTORE POP POP POP JUMP JUMPDEST PUSH1 0x2 PUSH1 0x20 MSTORE DUP1 PUSH1 0x0 MSTORE PUSH1 0x40 PUSH1 0x0 KECCAK256 PUSH1 0x0 SWAP2 POP SLOAD SWAP1 PUSH2 0x100 EXP SWAP1 DIV PUSH1 0xFF AND DUP2 JUMP JUMPDEST PUSH1 0x0 PUSH1 0x2 DUP1 PUSH1 0x4 DUP2 GT ISZERO PUSH2 0xA71 JUMPI INVALID JUMPDEST PUSH1 0x0 PUSH1 0x14 SWAP1 SLOAD SWAP1 PUSH2 0x100 EXP SWAP1 DIV PUSH1 0xFF AND PUSH1 0x4 DUP2 GT ISZERO PUSH2 0xA8C JUMPI INVALID JUMPDEST EQ PUSH2 0xA96 JUMPI PUSH1 0x0 DUP1 REVERT JUMPDEST PUSH1 0x1 ISZERO ISZERO PUSH1 0x2 PUSH1 0x0 CALLER PUSH20 0xFFFFFFFFFFFFFFFFFFFFFFFFFFFFFFFFFFFFFFFF AND PUSH20 0xFFFFFFFFFFFFFFFFFFFFFFFFFFFFFFFFFFFFFFFF AND DUP2 MSTORE PUSH1 0x20 ADD SWAP1 DUP2 MSTORE PUSH1 0x20 ADD PUSH1 0x0 KECCAK256 PUSH1 0x0 SWAP1 SLOAD SWAP1 PUSH2 0x100 EXP SWAP1 DIV PUSH1 0xFF AND ISZERO ISZERO EQ ISZERO PUSH2 0xAF8 JUMPI PUSH1 0x1 SWAP2 POP PUSH2 0xAFD JUMP JUMPDEST PUSH1 0x0 SWAP2 POP JUMPDEST POP SWAP1 JUMP JUMPDEST PUSH1 0x3 PUSH1 0x0 SWAP1 SLOAD SWAP1 PUSH2 0x100 EXP SWAP1 DIV PUSH20 0xFFFFFFFFFFFFFFFFFFFFFFFFFFFFFFFFFFFFFFFF AND PUSH20 0xFFFFFFFFFFFFFFFFFFFFFFFFFFFFFFFFFFFFFFFF AND CALLER PUSH20 0xFFFFFFFFFFFFFFFFFFFFFFFFFFFFFFFFFFFFFFFF AND EQ PUSH2 0xB5B JUMPI PUSH1 0x0 DUP1 REVERT JUMPDEST PUSH1 0x0 DUP1 PUSH1 0x4 DUP2 GT ISZERO PUSH2 0xB69 JUMPI INVALID JUMPDEST PUSH1 0x0 PUSH1 0x14 SWAP1 SLOAD SWAP1 PUSH2 0x100 EXP SWAP1 DIV PUSH1 0xFF AND PUSH1 0x4 DUP2 GT ISZERO PUSH2 0xB84 JUMPI INVALID JUMPDEST EQ PUSH2 0xB8E JUMPI PUSH1 0x0 DUP1 REVERT JUMPDEST PUSH1 0x1 PUSH1 0x0 PUSH1 0x14 PUSH2 0x100 EXP DUP2 SLOAD DUP2 PUSH1 0xFF MUL NOT AND SWAP1 DUP4 PUSH1 0x4 DUP2 GT ISZERO PUSH2 0xBAD JUMPI INVALID JUMPDEST MUL OR SWAP1 SSTORE POP POP JUMP JUMPDEST PUSH1 0x0 PUSH1 0x14 SWAP1 SLOAD SWAP1 PUSH2 0x100 EXP SWAP1 DIV PUSH1 0xFF AND DUP2 JUMP JUMPDEST PUSH1 0x0 PUSH1 0x1 ISZERO ISZERO PUSH1 0x2 PUSH1 0x0 CALLER PUSH20 0xFFFFFFFFFFFFFFFFFFFFFFFFFFFFFFFFFFFFFFFF AND PUSH20 0xFFFFFFFFFFFFFFFFFFFFFFFFFFFFFFFFFFFFFFFF AND DUP2 MSTORE PUSH1 0x20 ADD SWAP1 DUP2 MSTORE PUSH1 0x20 ADD PUSH1 0x0 KECCAK256 PUSH1 0x0 SWAP1 SLOAD SWAP1 PUSH2 0x100 EXP SWAP1 DIV PUSH1 0xFF AND ISZERO ISZERO EQ PUSH2 0xC27 JUMPI PUSH1 0x0 DUP1 REVERT JUMPDEST PUSH1 0x0 PUSH1 0x2 PUSH1 0x3 DUP5 MUL DUP2 PUSH2 0xC36 JUMPI INVALID JUMPDEST DIV SWAP1 POP PUSH1 0x0 DUP1 SLOAD SWAP1 PUSH2 0x100 EXP SWAP1 DIV PUSH20 0xFFFFFFFFFFFFFFFFFFFFFFFFFFFFFFFFFFFFFFFF AND PUSH20 0xFFFFFFFFFFFFFFFFFFFFFFFFFFFFFFFFFFFFFFFF AND PUSH4 0xA9059CBB CALLER DUP4 PUSH1 0x40 MLOAD DUP4 PUSH4 0xFFFFFFFF AND PUSH1 0xE0 SHL DUP2 MSTORE PUSH1 0x4 ADD DUP1 DUP4 PUSH20 0xFFFFFFFFFFFFFFFFFFFFFFFFFFFFFFFFFFFFFFFF AND DUP2 MSTORE PUSH1 0x20 ADD DUP3 DUP2 MSTORE PUSH1 0x20 ADD SWAP3 POP POP POP PUSH1 0x20 PUSH1 0x40 MLOAD DUP1 DUP4 SUB DUP2 PUSH1 0x0 DUP8 DUP1 EXTCODESIZE ISZERO DUP1 ISZERO PUSH2 0xCCA JUMPI PUSH1 0x0 DUP1 REVERT JUMPDEST POP GAS CALL ISZERO DUP1 ISZERO PUSH2 0xCDE JUMPI RETURNDATASIZE PUSH1 0x0 DUP1 RETURNDATACOPY RETURNDATASIZE PUSH1 0x0 REVERT JUMPDEST POP POP POP POP PUSH1 0x40 MLOAD RETURNDATASIZE PUSH1 0x20 DUP2 LT ISZERO PUSH2 0xCF4 JUMPI PUSH1 0x0 DUP1 REVERT JUMPDEST DUP2 ADD SWAP1 DUP1 DUP1 MLOAD SWAP1 PUSH1 0x20 ADD SWAP1 SWAP3 SWAP2 SWAP1 POP POP POP SWAP2 POP POP SWAP2 SWAP1 POP JUMP JUMPDEST PUSH1 0x0 SELFBALANCE SWAP1 POP SWAP1 JUMP JUMPDEST PUSH1 0x0 DUP1 PUSH1 0x4 DUP2 GT ISZERO PUSH2 0xD23 JUMPI INVALID JUMPDEST PUSH1 0x0 PUSH1 0x14 SWAP1 SLOAD SWAP1 PUSH2 0x100 EXP SWAP1 DIV PUSH1 0xFF AND PUSH1 0x4 DUP2 GT ISZERO PUSH2 0xD3E JUMPI INVALID JUMPDEST EQ ISZERO PUSH2 0xD4D JUMPI PUSH1 0x0 SWAP1 POP PUSH2 0xDF7 JUMP JUMPDEST PUSH1 0x1 PUSH1 0x4 DUP2 GT ISZERO PUSH2 0xD5A JUMPI INVALID JUMPDEST PUSH1 0x0 PUSH1 0x14 SWAP1 SLOAD SWAP1 PUSH2 0x100 EXP SWAP1 DIV PUSH1 0xFF AND PUSH1 0x4 DUP2 GT ISZERO PUSH2 0xD75 JUMPI INVALID JUMPDEST EQ ISZERO PUSH2 0xD84 JUMPI PUSH1 0x1 SWAP1 POP PUSH2 0xDF7 JUMP JUMPDEST PUSH1 0x2 PUSH1 0x4 DUP2 GT ISZERO PUSH2 0xD91 JUMPI INVALID JUMPDEST PUSH1 0x0 PUSH1 0x14 SWAP1 SLOAD SWAP1 PUSH2 0x100 EXP SWAP1 DIV PUSH1 0xFF AND PUSH1 0x4 DUP2 GT ISZERO PUSH2 0xDAC JUMPI INVALID JUMPDEST EQ ISZERO PUSH2 0xDBB JUMPI PUSH1 0x2 SWAP1 POP PUSH2 0xDF7 JUMP JUMPDEST PUSH1 0x3 PUSH1 0x4 DUP2 GT ISZERO PUSH2 0xDC8 JUMPI INVALID JUMPDEST PUSH1 0x0 PUSH1 0x14 SWAP1 SLOAD SWAP1 PUSH2 0x100 EXP SWAP1 DIV PUSH1 0xFF AND PUSH1 0x4 DUP2 GT ISZERO PUSH2 0xDE3 JUMPI INVALID JUMPDEST EQ ISZERO PUSH2 0xDF2 JUMPI PUSH1 0x3 SWAP1 POP PUSH2 0xDF7 JUMP JUMPDEST PUSH1 0x4 SWAP1 POP JUMPDEST SWAP1 JUMP JUMPDEST DUP3 DUP1 SLOAD DUP3 DUP3 SSTORE SWAP1 PUSH1 0x0 MSTORE PUSH1 0x20 PUSH1 0x0 KECCAK256 SWAP1 DUP2 ADD SWAP3 DUP3 ISZERO PUSH2 0xE36 JUMPI SWAP2 PUSH1 0x20 MUL DUP3 ADD JUMPDEST DUP3 DUP2 GT ISZERO PUSH2 0xE35 JUMPI DUP3 MLOAD DUP3 SSTORE SWAP2 PUSH1 0x20 ADD SWAP2 SWAP1 PUSH1 0x1 ADD SWAP1 PUSH2 0xE1A JUMP JUMPDEST JUMPDEST POP SWAP1 POP PUSH2 0xE43 SWAP2 SWAP1 PUSH2 0xE47 JUMP JUMPDEST POP SWAP1 JUMP JUMPDEST JUMPDEST DUP1 DUP3 GT ISZERO PUSH2 0xE60 JUMPI PUSH1 0x0 DUP2 PUSH1 0x0 SWAP1 SSTORE POP PUSH1 0x1 ADD PUSH2 0xE48 JUMP JUMPDEST POP SWAP1 JUMP INVALID LOG2 PUSH5 0x6970667358 0x22 SLT KECCAK256 0xDE INVALID 0xA5 PUSH6 0xB467FD3C18ED DIV 0x27 0xB4 SAR 0xBC KECCAK256 CALL CODESIZE SWAP16 LOG4 CALL 0x49 RETURN PUSH22 0xBDD1EEFAE044B66564736F6C63430007000033000000 "},"gasEstimates":{"creation":{"codeDepositCost":"747600","executionCost":"infinite","totalCost":"infinite"},"external":{"answers(uint256)":"2026","claimPrize(uint256)":"infinite","destroyContract(address)":"infinite","endQuiz()":"23006","getAnswerKey()":"infinite","getQuizBalance()":"281","getStage()":"4168","isUserRegistered()":"2226","manager()":"1070","publishAnswers(uint256[])":"infinite","registerUser()":"23093","stage()":"1139","startQuiz()":"22962","startReg()":"23006","user(address)":"1245"}},"methodIdentifiers":{"answers(uint256)":"17599cc5","claimPrize(uint256)":"d7098154","destroyContract(address)":"016a3738","endQuiz()":"5b0700a8","getAnswerKey()":"32b4d363","getQuizBalance()":"edb089cd","getStage()":"fcaa7664","isUserRegistered()":"873138f3","manager()":"481c6a75","publishAnswers(uint256[])":"6db92d77","registerUser()":"4d3820eb","stage()":"c040e6b8","startQuiz()":"4c3415e6","startReg()":"bedbc501","user(address)":"81e7e20e"}},"storageLayout":{"storage":[{"astId":113,"contract":"Quiz.sol:Quiz","label":"instanceEIP20","offset":0,"slot":"0","type":"t_contract(EIP20)20"},{"astId":121,"contract":"Quiz.sol:Quiz","label":"stage","offset":20,"slot":"0","type":"t_enum(Stage)119"},{"astId":124,"contract":"Quiz.sol:Quiz","label":"answers","offset":0,"slot":"1","type":"t_array(t_uint256)dyn_storage"},{"astId":128,"contract":"Quiz.sol:Quiz","label":"user","offset":0,"slot":"2","type":"t_mapping(t_address,t_bool)"},{"astId":130,"contract":"Quiz.sol:Quiz","label":"manager","offset":0,"slot":"3","type":"t_address"}],"types":{"t_address":{"encoding":"inplace","label":"address","numberOfBytes":"20"},"t_array(t_uint256)dyn_storage":{"base":"t_uint256","encoding":"dynamic_array","label":"uint256[]","numberOfBytes":"32"},"t_bool":{"encoding":"inplace","label":"bool","numberOfBytes":"1"},"t_contract(EIP20)20":{"encoding":"inplace","label":"contract EIP20","numberOfBytes":"20"},"t_enum(Stage)119":{"encoding":"inplace","label":"enum Quiz.Stage","numberOfBytes":"1"},"t_mapping(t_address,t_bool)":{"encoding":"mapping","key":"t_address","label":"mapping(address => bool)","numberOfBytes":"32","value":"t_bool"},"t_uint256":{"encoding":"inplace","label":"uint256","numberOfBytes":"32"}}},"userdoc":{"kind":"user","methods":{},"version":1}}